:100000000C9474060C9491060C9491060C942A316D
:100010000C9491060C9491060C9491060C94910604
:100020000C9491060C9491060C94CC150C94EB193D
:100030000C94F4280C9491060C9491060C9491065F
:100040000C9491060C9491060C9491060C949106D4
:100050000C9491060C94A5160C9491060C949106A0
:100060000C9491060C9491060C9491060C949106B4
:100070000C9491060C9491060C9491060C949106A4
:100080000C9491060C9491060C9491060C94910694
:100090000C9491060C9491060C9491060C94910684
:1000A0000C9491060C9491060C9491060001BFFFEC
:1000B0001E2301BFFF1E0106BFFFFF2406BFFFFF77
:1000C0000704BFFFFF2A04BFFFFF1902BFFFFF3C69
:1000D00002BFFFFFFF000000000001AAFF1E230176
:1000E000AAFF1E0106AAFFFF2406AAFFFF0704AA13
:1000F000FFFF2A04AAFFFF1902AAFFFF3C02AAFF82
:10010000FFFF00000000000180FF1E230180FF1E92
:10011000010680FF80240680FF80070480FF802A7C
:100120000480FF80190280FF803C0280FF80FF0076
:10013000000000000100FF1E230100FF1E01060059
:10014000FFFF240600FFFF070400FFFF2A0400FF53
:10015000FF190200FFFF3C0200FFFFFF000000004C
:100160000005010502050305040505050006010655
:100170000206030604060506000701070207030737
:100180000407050700080108020803080408050819
:100190000009010902090309040905090000010019
:1001A0000200030004000500000101010201030137
:1001B0000401050100020102020203020402050219
:1001C0000003010302030303040305030004010405
:1001D000020403040404050429001E001F0020007B
:1001E000210022002B0014001A000800150017003F
:1001F000005704001600070009000A00E0001D0077
:100200001B000600190005002800E3002F00B35D65
:100210002C00A8002A002700260025002400230027
:100220003100130012000C0018001C0034003300D1
:100230000F000E000D000B00E600380037003600FE
:10024000100011002C00E4003000B45D2800B65D01
:1002500001003A003B003C003D003E00010035003B
:100260002D022E022F0230020100640002570357B4
:100270002D001F0201002502260201570000000088
:100280000100010001000100010001000100000067
:1002900054002202000006028000AC0055006100FC
:1002A00060005F007F00AE0056005E005D005C00F5
:1002B0008100AB0057005B005A005900670037000F
:1002C0006200B45D010001000100010001000100B5
:1002D0000100010001003A003B003C003D003E00EF
:1002E00001003F0040004100420043000100440083
:1002F0004500680069006A0001000100010001007A
:1003000001000100010001000100010001000100E5
:100310004B004A0000005200000000004E004D005B
:100320004F0051005000000000004C000000000091
:1003300000000000010001000100010001000100B7
:1003400001000000000000000000000001000000AB
:10035000000000000000C35C0100C65CC85CCA5C11
:10036000CC5CC45C0100C75CC95CCB5CCD5C0000AC
:100370000100010001000100010001000000000077
:10038000000000000000000000000000000000006D
:1003900000000000005C00004F0900000000500950
:1003A00000000000AB00AE00AC0000000100010046
:1003B000010001000100010000DA0281FFD9F1DB38
:1003C00020A4A62EAF00A0C000A1C800AED580A872
:1003D0001FD300408D14200033010601D900AC006A
:1003E00000007F3F1F6432141E140A05536F666CB1
:1003F00065000A008081828384A0A1A2A3A4C0C159
:10040000C2C3C400556E6465660041646A0A004C4C
:100410006F77657200526169736500426173650AA6
:10042000004C41594552000A0A000A000A00808126
:1004300082838485868788898A8B8C8D8E8F909124
:10044000929394A0A1A2A3A4A5A6A7A8A9AAABAC85
:10045000ADAEAFB0B1B2B3B4C0C1C2C3C4C5C6C7FC
:10046000C8C9CACBCCCDCECFD0D1D2D3D400000115
:100470000101010101010101020202020202020264
:100480000203030303030303030404040404040436
:1004900005050505050606060606070707070708FA
:1004A000080808090909090A0A0A0B0B0B0C0C0CAD
:1004B0000D0D0D0E0E0E0F0F0F1010111111121247
:1004C00013131414151516161717181819191A1AC4
:1004D0001B1B1C1D1D1E1E1F202021222223242425
:1004E000252626272829292A2B2C2D2D2E2F303161
:1004F0003232333435363738393A3B3C3D3E3F4073
:100500004142434445464748494A4C4D4E4F50515D
:100510005354555658595A5B5D5E5F616264656617
:1005200068696B6C6D6F7072737577787A7B7D7E9E
:100530008082838587888A8C8E8F91939596989AEE
:100540009C9EA0A2A3A5A7A9ABADAFB1B3B5B7BA06
:10055000BCBEC0C2C4C6C9CBCDCFD1D4D6D8DBDDDA
:10056000DFE2E4E7E9EBEEF0F3F5F8FAFDFF222332
:10057000252628292A2C2D2F3032333536383A3B80
:100580003D3E4042434547494A4C4E5051535557D2
:10059000595A5C5E6062646668696B6D6F717375F1
:1005A00077797B7D7F81838587898A8C8E909294F1
:1005B00096989A9C9E9FA1A3A5A7A8AAACAEAFB1FE
:1005C000B3B4B6B8B9BBBCBEBFC1C2C3C5C6C7C948
:1005D000CACBCCCDCED0D1D2D2D3D4D5D6D7D7D802
:1005E000D9D9DADADBDBDBDCDCDCDCDCDDDDDDDD54
:1005F000DCDCDCDCDCDBDBDBDADAD9D9D8D7D7D65C
:10060000D5D4D3D2D2D1D0CECDCCCBCAC9C7C6C512
:10061000C3C2C1BFBEBCBBB9B8B6B4B3B1AFAEAC58
:10062000AAA8A7A5A3A19F9E9C9A98969492908E03
:100630008C8A89878583817F7D7B79777573716FDC
:100640006D6B6968666462605E5C5A5957555351B8
:10065000504E4C4A4947454342403E3D3B3A38366E
:10066000353332302F2D2C2A29282625232200AF7E
:1006700000AE05010902A10185020901A1000509D9
:100680001901290815002501950875018102050148
:10069000093009311581257F9502750881060938D1
:1006A0001581257F950175088106050C0A3802150C
:1006B00081257F950175088106C0C005010980A1CB
:1006C00001850319012AB700150126B700950175A8
:1006D000108100C0050C0901A101850419012AA09F
:1006E00002150126A002950175108100C0050109BF
:1006F00006A101050719E029E715002501950875F0
:100700000181029501750881010507190029FF156E
:100710000026FF00950675088100050819012905C6
:10072000950575019102950175039101C009023B80
:1007300000020100A0FA0904000001030101000900
:100740002111010001224000070581030800010971
:100750000401000103000000092111010001227BB6
:1007600000070582032000011201000200000008BA
:1007700032FC87020100010200010C0353006F00EC
:1007800066006C00650000001A034A006F007300E9
:10079000650066004100640061006D00630069004F
:1007A0006B0000000403090407087F0807003E5B94
:1007B0004F5B3E003E6B4F6B3E001C3E7C3E1C0080
:1007C000183C7E3C18001C577D571C001C5E7F5E49
:1007D0001C0000183C180000FFE7C3E7FF000018EA
:1007E00024180000FFE7DBE7FF0030483A060E0060
:1007F000262979292600407F05050700407F052529
:100800003F005A3CE73C5A007F3E1C1C0800081C75
:100810001C3E7F0014227F2214005F5F005F5F0098
:1008200006097F017F00006689956A00606060604C
:10083000600094A2FFA2940008047E040800102027
:100840007E20100008082A1C0800081C2A0808003E
:100850001E10101010000C1E0C1E0C0030383E38FC
:100860003000060E3E0E06000000000000000000F2
:100870005F000000000700070000147F147F1400D1
:10088000242A7F2A12002313086462003649562066
:100890005000000807030000001C22410000004136
:1008A000221C00002A1C7F1C2A0008083E080800A1
:1008B0000080703000000808080808000000606030
:1008C00000002010080402003E5149453E0000424D
:1008D0007F4000007249494946002141494D33009B
:1008E0001814127F10002745454539003C4A4949F4
:1008F000310041211109070036494949360046496E
:1009000049291E00000014000000004034000000CF
:10091000000814224100141414141400004122147D
:1009200008000201590906003E415D594E007C1243
:1009300011127C007F49494936003E414141220065
:100940007F4141413E007F49494941007F090909F2
:1009500001003E41415173007F0808087F000041BB
:100960007F4100002040413F01007F0814224100E8
:100970007F40404040007F021C027F007F0408103F
:100980007F003E4141413E007F09090906003E418A
:1009900051215E007F091929460026494949320044
:1009A00003017F0103003F4040403F001F204020E3
:1009B0001F003F4038403F006314081463000304E5
:1009C000780403006159494D4300007F41414100D3
:1009D000020408102000004141417F00040201028E
:1009E000040040404040400000030708000020543D
:1009F000547840007F284444380038444444280058
:100A0000384444287F0038545454180000087E09A4
:100A1000020018A4A49C78007F0804047800004415
:100A20007D4000002040403D00007F102844000031
:100A300000417F4000007C04780478007C080404B6
:100A40007800384444443800FC1824241800182442
:100A50002418FC007C080404080048545454240062
:100A600004043F4424003C4040207C001C204020E3
:100A70001C003C4030403C004428102844004C906E
:100A800090907C004464544C4400000836410000BF
:100A90000000770000000041360800000201020457
:100AA00002003C2623263C000000000000004040DD
:100AB00040F0F8F8FF38FFF8F83FF8F8FF38FFF893
:100AC000F8F040404000000000000080C0C0C0803E
:100AD0000000C0C08000000080C0C000C0C0000096
:100AE00080C0C00000000000C0C0C0C0C000C0C0C6
:100AF00000000000000000000000000000000000F6
:100B000000000000000000000000000000000000E5
:100B100000000000000000000000000000000000D5
:100B200000000000000000C0F0F8FC3E1E060100BE
:100B300000007F4141417F007F4141417F000080B3
:100B4000C0E07E5B4F5BFEC00000C000DCD7DEDE95
:100B5000DED7DC00C0000000000000000000000044
:100B600000000000000000000000000000004949F3
:100B700049FFFFFFFFE0DFBFBF00BFBFDFE0FFFFB8
:100B8000FFFF49494900000000001F3F6060E0BFCF
:100B90001F007F7F071E381E077F7F007F7F0E1F8D
:100BA0003B716000000000007F7F0C0C0C007E7E1B
:100BB000007F7E0303007F7E03037E7E03037F7E30
:100BC000000F3E703C063C703E0F00327B49493FAF
:100BD0007E007F7E0303001E3F69696F26000000D0
:100BE00000000000000000030F1F3F3C7870600011
:100BF00000007F4141417F007F4141417F00307BC8
:100C00007F7830202030787F3B0003000F7F0F0F6C
:100C10000F7F0F0003000000000000000000000034
:100C200000000000000000000000000000000101C2
:100C300001070F0F7F0F7F0F0F7E0F0F7F0F7F0FAB
:100C40000F0701010100000000000000000000018A
:100C50000100000000000000000000000000000093
:100C60000000000000000000000000000000000084
:100C70000000000000000000000000000000000074
:100C80000000000000000000000000000000000064
:100C90000000000000000000000000000000000054
:100CA0000000000000000000000000000000000044
:100CB0000000000000000000000000000000000034
:100CC0000000000000000000000000000000000024
:100CD0000000000000000000000000000000000014
:100CE000000000000000000011241FBECFEFDAE07A
:100CF000DEBFCDBF11E0A0E0B1E0EAE3F7E602C05D
:100D000005900D92AE3FB107D9F726E0AEEFB1E006
:100D100001C01D92AE33B207E1F70E941B290C946B
:100D20007E330C940000E8EDF0E080818E7F8083BC
:100D30001092E2001092DA001092E100A0EEB0E012
:100D40008C9181608C9380818F77808319BCA7ED13
:100D5000B0E08C918E7F8C9380818F7E8083109207
:100D6000170408952091E4003091E50095E6A9016B
:100D70002091EC00822F817020FF06C08091E80056
:100D800080FF06C080E008952091E80022FD1AC08F
:100D900080912404882389F0853089F08091EB00CC
:100DA00085FD0FC02091E4003091E5004217530704
:100DB000F9F29150E1F684E0089582E0089583E02D
:100DC000089581E00895EF92FF920F931F93CF93C0
:100DD0007C018B010E94B206C82F811117C080913F
:100DE000E80085FD0BC08091E8008E778093E800D5
:100DF0000E94B206882399F3C82F08C0F701819199
:100E00007F018093F1000150110949F78C2FCF9198
:100E10001F910F91FF90EF9008958091260487FF16
:100E200013C08091E80082FF06C08091E8008B77B4
:100E30008093E80004C0809124048111F2CF0895CA
:100E4000809124048823D9F38091E80080FFF8CFB3
:100E50008091E8008E77ECCF982F9093E900242FB3
:100E6000762F50E0891731F07091EC002091ED0061
:100E70005091F00021FD07C09F5F973071F780937C
:100E8000E90081E008953091EB003E7F3093EB0064
:100E90003091ED003D7F3093ED003091EB003160FB
:100EA0003093EB007093EC002093ED005093F00032
:100EB0002091EE0027FDE0CF80E00895B0E0A0E0B3
:100EC000E4E6F7E00C946432C8EDD0E088818F7ED0
:100ED0008883E7EDF0E080818160808384E082BFD9
:100EE00081E08093170488818E7F888302EE10E072
:100EF000F80110821092DA0081EEC82ED12CF60192
:100F0000108288818F778883888180688883888130
:100F10008F7D888319BC10922404109225041092AE
:100F200023041092220490EEE92EF12CF701808127
:100F30008B7F808388818160888342E060E080E0ED
:100F40000E942C07F60180818E7F8083F8018081CA
:100F500081608083808188608083F70180818E7FBB
:100F60008083888180618883CDB7DEB7E8E00C9408
:100F70008032FC0180912C0490912D0486179707F4
:100F8000A0F06115710529F49091E8009E77909387
:100F9000E80090E06115710551F4911108C080914D
:100FA000E80082FF34C080E00895BC01F2CF809158
:100FB00024048823C1F18530C1F18091E80083FDCC
:100FC00030C08091E80082FDEACF8091E80080FF88
:100FD000E1CF8091F3002091F200382F6115710567
:100FE00019F02830310558F091E02830310509F02A
:100FF00090E02091E8002E772093E800CBCF8191FC
:101000008093F100615071092F5F3F4FE7CF8091CE
:101010002404882341F0853041F08091E80083FF6B
:10102000BECF81E0089582E0089583E00895089599
:101030008091190408952FB7F8946091100470916D
:10104000110480911204909113042FBF08959C0104
:10105000FC0132969FEF80E04191461751F09F3F8F
:1010600019F4411101C0982F8F5F8630A9F79F3F77
:1010700009F40895290F311D97FD3A95F90162830E
:10108000089520910D0430910E042817390771F04E
:1010900090930E0480930D04E0910B04F0910C04E6
:1010A000309721F00084F185E02D09950895209175
:1010B000090430910A042817390771F090930A0443
:1010C00080930904E0910B04F0910C04309721F017
:1010D0000680F781E02D09950895FC01680F791FBE
:1010E0008FEF91E32191822728E030E087FF09C04C
:1010F000880F892721503109C9F7E617F70791F7BB
:101100000895880FF7CFFA01811101C0FB010995FD
:1011100008950895E3E2F3E011828281846082837E
:1011200008958091FA03982F9E7F61F48170826008
:101130008093FA038091FD03893718F088E7809344
:10114000FD0308958032B0F381708E61F1CFAF92CC
:10115000BF92DF92EF92FF920F931F93CF93DF9393
:10116000082F162FE901E42FF0E0E259FB4F61113F
:1011700010C0E4915E2F4E2F4983E8835A83DF919C
:10118000CF911F910F91FF90EF90DF90BF90AF90A4
:101190000895E62EF12C4491D42EE42FF0E026E0C1
:1011A000829FC00111242FEF30E0B9010E94463226
:1011B000802F90E0880F991F55E5569FD001579FCB
:1011C000B00D11248A1B9B0B982F990F890F590181
:1011D000AE18BF08AE9ED001AF9EB00DBE9EB00D42
:1011E00011245B2F189F80011124012F1127590111
:1011F000A01AB10AAE9E8001AF9E100DBE9E100DCA
:1012000011245901A81AB108AE9CC001AF9C900DE1
:10121000BE9C900D1124892F9927281B390B2E9FD6
:10122000C0012F9F900D3E9F900D1124E92F623039
:101230007105A1F050F46115710509F49DCF61307D
:10124000710581F0EB2F512F97CF6430710569F054
:1012500080F06630710509F48FCFF4CFE42F4B2F67
:10126000592F8ACFE42F412F87CFEB2F542F492FAF
:1012700083CF4B2F5D2DE12F7FCF409117038D3E04
:1012800059F48091180387FF0DC010921803411183
:101290000BC010920F0308C08E3E81F4809118039A
:1012A00018169CF3442381F08091190390911A033E
:1012B000892B09F05AC010920E0308958F3E49F40D
:1012C00047FFF0CF10921703809118038111ECCFE4
:1012D000E0CF803F19F41416ACF3E4CF90911903DA
:1012E000893F29F41916F4F610921903DBCF8A3FCF
:1012F00019F497FFD7CFF8CF90911A038B3F29F4B9
:1013000097FFD0CF10921A03CDCF8C3F19F4191646
:10131000CCF3C8CF9FE0980F983090F4815F990B81
:1013200021E030E0B90102C0660F771F8A95E2F72D
:10133000CB01809590911603892380931603B2CF39
:101340008D3F31F4809110038E7F80931003AACFDC
:101350008E3F21F4809110038D7FF7CF8F3F09F0EE
:10136000A1CF809110038B7FF0CF0895809110035F
:1013700080FD16C081FD16C082FD16C080910E034F
:101380008823A1F0883280F428E0829FC0011124D4
:1013900068E270E00E949D32862F672B39F0089535
:1013A00082E0089584E0089588E0089581E008953A
:1013B0008091100380FD14C081FD14C082FD16C011
:1013C00080910F03882381F08E3180F420E5829F85
:1013D000C00111246EE170E00E949D32862F0895B5
:1013E00084E1089588E2089588E0089580E50895ED
:1013F0008D3E31F40E94D809819580931803089599
:101400008E3E19F40E94D809F8CF8F3E31F40E9425
:10141000D8098195809317030895803F19F40E949D
:10142000D809F8CF893F29F40E94B609809319039F
:1014300008958A3F21F40E94B6098195F7CF8B3F2A
:1014400031F40E94B609819580931A0308958C3F68
:1014500019F40E94B609F8CF9FE0980F983070F405
:10146000815F990B21E030E001C0220F8A95EAF7F5
:1014700080911603822B8093160308958D3F31F4DB
:101480008091100381608093100308958E3F21F4B2
:10149000809110038260F7CF8F3FB9F780911003DE
:1014A0008460F1CF80E00895F894E82FE295EF7022
:1014B000F0E031A1282F2F7081E090E001C0880F6B
:1014C0002A95EAF7982F9095932391A392A1892BBF
:1014D00082A3789408959091BE0292FF06C0282FAF
:1014E00028712830F9F4877F846093FF06C0282F85
:1014F00028712831F1F4877E84612091BF0220FF9A
:1015000006C0382F38713830D9F4877F816021FFC9
:1015100006C0282F28712831D1F4877E816194FD7F
:10152000877E0895282F24712430F9F68B7F8860F8
:10153000DCCF282F2471243101F78B7E8861DDCF29
:10154000382F3171313019F78E7F8860E0CF282F26
:101550002171213121F78E7E8861E1CF972F7A307A
:10156000A8F4663098F470E026E0929F600D711D3B
:101570001124FB019CE3899FE00DF11D1124EE0F66
:10158000FF1FE852FE4F85919491089580E090E00E
:101590000895CF93DF93EC0182389105B1F108F003
:1015A00040C08133910509F49DC048F58932910509
:1015B00009F48DC08A9709F49CC0C11522E5D207B1
:1015C00008F0C8C0C11531E5D30708F02FC1C83EE7
:1015D000D10508F0A3C0C13ED10588F5C83AD105B0
:1015E00008F08EC0C53AD10508F004C1C130D1055C
:1015F00031F1209721F1C430D10508F545C085337C
:10160000910509F45FC0C997C1F68091BE0283704D
:1016100009F046C18091BF0283FF11C0C9E2D0E04A
:101620000EC0833E910599F170F4803E910501F161
:10163000823E910511F68091BE0282FD21C0CE014D
:10164000DF91CF910895863E910561F1873E910526
:1016500071F1843E910509F0B0CF8091BF0281FF06
:10166000EECF8091BE02C7EED0E084FD0DC0E7CF83
:101670008091BE0280FD33C09091BF0290FFDFCF0A
:10168000C3EED0E084FFDBCFD0E0C0E0D8CF8091C4
:10169000BE0282FD02C19091BF0290FD01C184FF94
:1016A000CECFF2CF8091BE0283FDDDCFC8CF809137
:1016B000BE0283FDF8C09091BF0291FFF0CFC4EE4F
:1016C000D0E0BDCF8091BE0285FFB9CFA7CF80917A
:1016D000BE0285FDEBC08091BF0283FFB0CFC9E39E
:1016E000D0E0ADCF8091BE0286FFA9CFCAE2D0E0A4
:1016F000A6CF8091BE0286FFA2CFC1E3D0E09FCFEC
:10170000CF3BD10508F6C85AD0E0CC0FDD1FC55637
:10171000DE4F0990D881C02DD46491CFC11540E22D
:10172000D40758F4C11581E0D80708F088CFCD3E22
:10173000D10508F4A9CFD06582CFC11520E4D20726
:1017400008F4A2CFC11530E5D30708F05BC0DF7005
:10175000D06A75CFC11546E5D40718F5C11585E5E2
:10176000D80708F07CC0C11524E5D20708F072C084
:101770009E01237033279C2F96959695C115D345CE
:1017800008F459C0C1E0D0E002C0CC0FDD1F2A959B
:10179000E2F730E2939FC0011124C82BD92BDA68FD
:1017A0004ECFC11589E5D80768F4C11528E5D207E1
:1017B00008F060C0C11537E5D30708F065CFDD2715
:1017C000D0663DCFC1154AE5D40708F458C0CE0114
:1017D00090568115904208F057CF8D2F8F710E943F
:1017E0006B0A90E0982F882788279F719C012C2BEB
:1017F000E9013EC0C55AD0E0C856DE4FC881D0E0EE
:10180000D0641DCFCE018370992721E030E002C063
:10181000220F331F8A95E2F7C695C69540E2C49F12
:10182000E0011124C22BD32BDD6809CFDC2FCC279C
:10183000C16FD06A04CFC1E0D0E002C0CC0FDD1F81
:101840002A95E2F720E2929FC0011124C82BD92BE0
:10185000DC68F5CEDC2FCC27C46FD06AF0CE8C2F9D
:101860000E946B0AC82FD0E0DC2FCC27CC27DF7179
:10187000D062E5CEDC2FCC27C06FD06AE0CE8C2FB3
:101880008F700E946B0A34E0D695C7953A95E1F7C0
:10189000CF709C2FEC01D069D2CEC2EED0E0CFCE7B
:1018A000C0EED0E0CCCEC6EED0E0C9CEC5E3D0E0ED
:1018B000C6CE0E941B080895809175028111109276
:1018C00075020895809590910504982390930504DE
:1018D00008958095909106049823909306040895A6
:1018E00080916B0290913A02981301C008958F5F26
:1018F0008770FACFB0E0A0E0E0E8FCE00C9463323F
:101900007C01009131041091320480917602909113
:101910007702082B192BCFE0D0E0CC24C394D12C34
:10192000BC2EC6010C2E02C0880F991F0A94E2F744
:1019300080239123892B49F4219790F7B12C8B2D8B
:10194000CDB7DEB7E9E00C947F32B7018C2F0E944F
:10195000AE0A0E94C90A019779F3F1CFCF93DF93C2
:10196000EC010E947A0CBE010E94AE0A0E94C90AD4
:10197000DF91CF9108959A3078F5863068F5E82F99
:10198000F0E086E0989FE00DF11D11249E2F9770E6
:1019900083E0F695E7958A95E1F7EE0FFF1FEE0FCE
:1019A000FF1FEE5EFD4F50E040E080E0219130E00F
:1019B000092E02C0369527950A94E2F72170332745
:1019C000042E01C0220F0A94EAF7822B4F5F5F4F6B
:1019D0004430510559F7089580E008959A3098F5FC
:1019E000863088F5E82FF0E086E0989FE00DF11D45
:1019F00011248E2F877041E001C0440F8A95EAF7C9
:101A000083E0F695E7958A95E1F7EE0FFF1FEE0F5D
:101A1000FF1FEE5EFD4F30E020E070E05191DF01EE
:101A20001197CB01022E02C0969587950A94E2F792
:101A3000817081958527842385278C932F5F3F4F65
:101A40002430310559F70895FC0183819481892B55
:101A500029F08081918189238F3F51F480E008959E
:101A6000843FE1F717C0883EA8F0813FB9F712C064
:101A7000808191810E94AE0C92959F70963099F36F
:101A800058F4925F9F70923048F7803F19F040F70A
:101A9000883E20F781E008959A5FF4CF292F3327FD
:101AA00040E02115310511F0C90148E09C0164E0D6
:101AB000369527956A95E1F72115310511F04C5FB0
:101AC000C9019C0136952795369527952115310535
:101AD00011F04E5FC90196958795892B09F04F5FEC
:101AE000842F08959C013A9521153F4150F5FC0142
:101AF000EE27F170BC0166277270AC014427547068
:101B00009C012227387094FF0EC080E1EF2B09F46E
:101B100080E0672B09F08062452B09F08064232B5D
:101B200089F08068089581E0EF2B09F480E0672B4D
:101B300009F08260452B09F08460232B19F088603E
:101B4000089580E00895CF93DF93682F81E06A3095
:101B500019F06D3031F480E00E94310EDF91CF91A9
:101B6000089580913C0690913D0626E0FC01A6E395
:101B7000B6E001900D922A95E1F7603E08F458C056
:101B800026E0FC0111922A95E9F7C0913C06D0911C
:101B90003D0646E050E0BE0186E396E00E94203319
:101BA0009E0126533440892B41F1C90145E09695A9
:101BB00087954A95E1F741E050E0BA0102C0660F0F
:101BC000771F8A95E2F7CB01609134047091350458
:101BD000862B972BB9016B5F7F4FE5E07695679574
:101BE000EA95E1F702C0440F551F6A95E2F7842B8E
:101BF000952B90933504809334042A5F3F4F409196
:101C00003304642F70E0C9010E944632481B4630FD
:101C100010F4240F311D211572E0370710F030E069
:101C200020E02A5C3B4F30933D0620933C0696CF44
:101C3000F6E06F9FB00111246855784F46E050E000
:101C40000E940A33A2CFCF93DF93EC01FE0184916F
:101C5000811103C0DF91CF9108950E94A30D2196B9
:101C6000F5CFCF93382FE0913C06F0913D06E65337
:101C7000F44020913304622F70E0CF010E9446327D
:101C8000281B822F332361F066E00E949132C82F17
:101C9000C15010F4CF91089580E20E94A30DF8CFB7
:101CA0009F01280F311D2115324018F080E0F0E02F
:101CB000E0E08E0F9F2F911D8A5C9B4F90933D0615
:101CC00080933C06E7CF8091060490910504892B10
:101CD0008093000290917502992391F0892B809353
:101CE000000220E082E092E0FC013191CF0131114D
:101CF0002F5FF2E088309F07B9F721110E945C0C3A
:101D000048E050E06DE672E080E092E00E9420330F
:101D1000892BA9F088E0E0E0F2E0ADE6B2E00190C6
:101D20000D928A95E1F7E0910B04F0910C04309745
:101D300031F00280F381E02D80E092E00995089572
:101D4000CF93DF93EC01EA85FB85309719F06C8522
:101D50007D8509958B810E94620C8C810E94690CA3
:101D60000E94630E86E0FE0111928A95E9F7DF91E9
:101D7000CF910895CF93DF93EC018D8181FD18C041
:101D800082608D83809105049B81892B809305045B
:101D9000809106049C81892B809306040E94630E27
:101DA000E885F985309721F06C857D85CE01099510
:101DB00010920804109207048D8180FD03C0CE01AB
:101DC0000E94A00EDF91CF910895882321F00E94F8
:101DD000620C0E94630E0895882339F090910504E7
:101DE000982B909305040E94630E0895882321F098
:101DF0000E94690C0E94630E0895882339F0909127
:101E00000604982B909306040E94630E0895B0E098
:101E1000A0E0EDE0FFE00C9464326C017B0164E62D
:101E200070E088E70E94A42FEC0197FD12C010E03B
:101E300000E0F601E00FF11F849164E670E00E947B
:101E40001030EC01892B29F40F5F1F4F0E151F0571
:101E500081F70E948630CE01CDB7DEB7E8E00C9462
:101E600080328091030490910404911103C091E0A9
:101E700089270895882369F062E070E080E796E0A2
:101E80000E94070F892B19F0809103040895109286
:101E9000030480910304EBCFCF93C091030480919E
:101EA00004048823D1F00E941B08605A75418F4FAB
:101EB0009F4F6093FF0370930004809301049093FD
:101EC0000204C11108C062E070E08EE696E00E9454
:101ED000070F892B29F0C09103048C2FCF9108950F
:101EE00081E080930304F7CF809314047093160469
:101EF0006093150480912404843001F582E080937E
:101F0000E9008FEF9091E800815095FD06C095EDB6
:101F10009A95F1F700008111F5CF8091E80085FFD7
:101F20000DC050E040E063E070E084E194E00E9486
:101F3000E3068091E8008E778093E8000895BC0165
:101F400084E00E94740F0895BC0183E00E94740F26
:101F500008959C0182E08093E9009FEF8091E80062
:101F6000915085FD06C085ED8A95F1F7000091112D
:101F7000F5CF8091E80085FF0CC050E040E066E0BE
:101F800070E0C9010E94E3068091E8008E7780939B
:101F9000E8000895CF93DF93EC0181E08093E9009E
:101FA0008FEF9091E800815095FD06C095ED9A95D0
:101FB000F1F700008111F5CF8091E80085FF14C092
:101FC00050E040E068E070E0CE010E94E3068091BE
:101FD000E8008E778093E80088E0FE01AAE1B4E093
:101FE00001900D928A95E1F7DF91CF910895A5E0D8
:101FF000B0E0EDEFFFE00C945C32509093019091D3
:10200000FA0390FF2AC080901B0390901C03811458
:102010009104A9F58091920143E0849FC0011124AD
:10202000885D9C4F539A2BB1277F3BB138605FB7D7
:10203000F894BC01549E600D711D112486179707FA
:1020400009F079C05FBF8FE594E00197F1F700C018
:1020500000002596E0E10C94783280919401209163
:10206000950133E0839FF0011124E85DFC4F821756
:1020700050F61182108212828F5F3396F8CF90FF54
:10208000C9CFD12CC12C66246394712C53E0452E0A
:102090008091260393010C2C01C0220F0A94EAF7C9
:1020A000822309F43FC0F601EE0FFF1FE80DF91D72
:1020B000E590F490E114F10409F4ACCF45E050E070
:1020C000B701CE0101960E940A3309810F3F51F1F9
:1020D0008A81800F9927991F8734910514F086E42F
:1020E00090E05C01AA0CBB1C8A0D9B1DFC01E85D05
:1020F000FC4F5F01049D80011124085D1C4F0A15EF
:102100001B0520F0F5E0EF0EF11CD8CF4D814937CB
:1021100008F048E798016C818B810E94A7080D5F49
:102120001F4FEDCF2FEFC21AD20A38E0C316D104E9
:1021300009F0AECF6FCFFC014191CF01E8E03BB990
:10214000000000C047FF2BB9440F000000C000C0D2
:1021500000C02BB900C0EA9591F770CFB0E0A0E0C5
:10216000E4EBF0E10C946032EC014C81042F10E0C0
:102170009801D8010E94E1329B01AC010E94F73224
:102180004B015C01E0E2F0E0E01BF10BA5E5B0E003
:10219000AC019B010E94F7326B017C019F01DF01C2
:1021A0000E94D9329B01AC010E9402339B01AC0119
:1021B000280D391D4A1D5B1DC701B6010E94B132B1
:1021C000F22E822F90E039E23F1520F143E0249F68
:1021D0009001112435952795122F109500E085E583
:1021E000E82EEF1880919601081718F10E94F70F5A
:1021F0009C8181E0992319F0903219F48FEF80933C
:10220000910180919101890F8C83CDB7DEB7ECE00D
:102210000C947C3225E530E0B901681B790B9B01F9
:10222000220F331F260F371F37FFD4CF2F5F3F4FAB
:10223000D1CF8E2D01FD8F2D20919401622F600F43
:102240007727771F9B01220F331F260F371F285D2B
:102250003C4F412F193708F048E76091FC030E947A
:10226000A7080F5FBFCFEF92FF920F931F93CF93FB
:10227000DF93EC018C81811109C081E08C83109285
:10228000270392E09093900180938F0180919401B5
:102290009091950123E0829FF0011124E85DFC4FAD
:1022A000891758F110E003E060919601161758F174
:1022B0000E94F70F80918F0120912703280F209310
:1022C000270390919001980F90939001191654F460
:1022D000022E000C330B409196014150550B2417F0
:1022E000350734F0819580938F01813009F41C8289
:1022F000CDB7DEB7E6E00C948232118210821282F2
:102300008F5F3396CDCFE12EF12C70E0C7010E9494
:102310009D3220919401820F482F50E02091270395
:10232000022E000C330BE216F306D4F0209190013C
:10233000022E000C330B2E153F0594F0809F900168
:102340001124285D3C4F4091FD03493708F048E7D0
:102350006091FC038091FB030E94A7081F5FA4CF3C
:10236000FA01EE0FFF1FE40FF51FE85DFC4F11822D
:1023700010821282F3CFEF92FF921F93CF93DF93DD
:10238000EC0110E0EE24EA94F12C6091960116170E
:1023900070F00E94F70F9A818C8190FF2AC08F5FA6
:1023A0008C83DF91CF911F91FF90EF900895209142
:1023B0009401422F410F5527551FCA019A01220F40
:1023C000331F280F391F285D3C4F4091FD034937CB
:1023D00008F048E770E0C7010E949D32962F8C817B
:1023E0006091FC03199F800D11240E94A7081F5FB4
:1023F000CCCF8150D5CF9091FA0390FF0EC0909131
:1024000094012091950133E0939FF0011124E85D40
:10241000FC4F921718F00E94F70F08958183608394
:1024200042839F5F3396F5CFA3E0B0E0EAE1F2E1AB
:102430000C9468328C01DC011496EC91F0E0E259C6
:10244000FA4F44918091FA0380FF11C0493708F098
:1024500048E79E012F5F3F4F6091FC038091FB0393
:102460000E94A7084B8169818A810E94FB11F801B3
:1024700084818F5F84832396E4E00C948432EAEFB6
:10248000F3E080818E7F80830E948A08E3E2F3E09C
:102490008281816082832FEF80E792E0215080402B
:1024A0009040E1F700C000000E94F70F0895B0E0EF
:1024B000A0E0EDE5F2E10C9462327C015B016A017F
:1024C0008091AD0201E010E08A3010F40AE010E0E3
:1024D000C1E0D0E0B501C701F6010995811104C042
:1024E00021960C171D072CF4CDB7DEB7EAE00C944B
:1024F0007E32CC9F9001CD9F300D300D112490E0A5
:1025000080E045E34A95F1F70000019682179307B2
:10251000C1F7E0CF80918202811119C088EC90E070
:102520002091E30027FD10C0EFE3FCE93197F1F7BC
:1025300000C000000197A1F782E0809382020E9410
:1025400093061092240403C081E08093820281E00C
:1025500090918202913011F080E0089508950E94D8
:102560008A12882359F0E0910B04F0910C04309703
:1025700029F00190F081E02D0995089580E00895FB
:102580000F931F930E948A12882329F00E941B0830
:102590001F910F9108950E941B080091AE021091A7
:1025A000AF022091B0023091B102600F711F821F03
:1025B000931FEECFCF92DF92EF92FF926B017C01DF
:1025C0000E949108B701A60188E090E00E945C3368
:1025D000FF90EF90DF90CF900895A3E0B0E0E3EF9D
:1025E000F2E10C946632082FF62E142FE22E809121
:1025F000FA0380FF3DC0E82FE695F0E0E251FE4F80
:102600009081909323038E7F8230B1F5493708F093
:1026100048E79E012F5F3F4F6F2D802F0E94A70834
:102620004B8169818A810E94FB118091FB03801399
:1026300008C08091FC038F1104C08091FD038117B5
:1026400029F0809125038260809325030093FB038A
:10265000F092FC031093FD03EE2051F06091FA0319
:102660007091FB038091FC039091FD030E94DA12AC
:102670002396E6E00C948232923019F41091FD0317
:10268000D4CF963091F60091FB03CFCFEAEFF3E081
:10269000438121E1421B08F440E021E06281818115
:1026A0000E94ED120895EAEFF3E0438121E1420F29
:1026B00008F44FEF21E0628181810E94ED120895BC
:1026C000EAEFF3E0628121E1621B08F460E021E0BF
:1026D000438181810E94ED120895EAEFF3E0628167
:1026E00021E1620F08F46FEF21E0438181810E94B4
:1026F000ED120895EAEFF3E0818121E043816281E8
:102700008A500E94ED120895EAEFF3E0818121E002
:1027100043816281865F0E94ED1208958091FE03DD
:10272000882319F081508093FE036091FA03709121
:10273000FB038091FC039091FD030E94DA1208953F
:102740008091FE03833018F48F5F8093FE036091C5
:10275000FA037091FB038091FC039091FD030E94AA
:10276000DA120895EAEFF3E083E0808311828FEFBD
:10277000828388E783831482A3E2B3E012968C916C
:102780001297836012968C9360817181828193810C
:102790000E94DA120895CF9384E090E00E943633CD
:1027A000C82F82E290E00E943633982F8C2FCF9171
:1027B0000895A9E0B0E0EFEDF3E10C946A3285E012
:1027C000EAEFF3E0DE01119601900D928A95E1F7B0
:1027D0008091230390912403A0912503B0912603B7
:1027E0008E839F83A887B98728854091A90250913D
:1027F000AA026091AB027091AC023FB7F89480914D
:10280000100490911104A0911204B09113043FBFE1
:10281000841B950BA60BB70B84369105A105B1055A
:1028200010F4222319F18091390190913A018C56CC
:102830009D4F4091380150E04A30510510F049E079
:1028400050E0BE016F5F7F4F0E942D3385E090E026
:102850000E94D031882369F00E941B086093A9026E
:102860007093AA028093AB029093AC02109225035E
:1028700081E02996E2E00C948632A4E0B0E0E3E443
:10288000F4E10C9469324091900250919102609170
:102890009202709193022FB7F89480911004909156
:1028A0001104A0911204B09113042FBF841B950B47
:1028B000A60BB70B11E084369105A105B10570F1A7
:1028C0000E94C0126E5F7F4F8F4F9F4F69837A8344
:1028D0008B839C8380913101909132018C569D4F66
:1028E0004091300150E04530510510F044E050E097
:1028F000BE016F5F7F4F0E942D3384E090E00E9405
:10290000D031182F882351F00E941B086093900249
:10291000709391028093920290939302812F249658
:10292000E3E00C9485324F925F927F928F929F9258
:10293000AF92BF92CF92DF92EF92FF920F931F93CD
:10294000CF93DF930F92CDB7DEB7C62E4A01590160
:10295000482E880F5508C2010E94D031782E882356
:1029600009F480C0C20133E0880F991F3A95E1F75E
:10297000FC01E05FFE4F438150E04115510511F02D
:1029800041E050E0805F9E4FFC01648175816C5690
:102990007D4FCE0101960E942D33F401408151817B
:1029A000628173812FB7F894809110049091110483
:1029B000A0911204B09113042FBF841B950BA60B9A
:1029C000B70B84369105A105B10540F4B701C801E4
:1029D0000E946D089981891709F444C00C2C000CE1
:1029E000DD08C6010E94D031782E811113C0712CF0
:1029F000872D0F90DF91CF911F910F91FF90EF9056
:102A0000DF90CF90BF90AF909F908F907F905F901E
:102A10004F900895C60123E0880F991F2A95E1F78A
:102A2000FC01E05FFE4F438150E0E416F50608F438
:102A3000A701805F9E4FFC01648175816C567D4FBC
:102A4000C5010E942D33B701C8010E946D0899810C
:102A50008913CDCF0E941B08F401608371838283A8
:102A60009383C6CFA701B801C5010E942D33C0CF03
:102A7000A5E0B0E0EEE3F5E10C9464326B0185E093
:102A8000E82EF12C05E912E09E012F5F3F4F48E848
:102A900052E061E080E00E949314882349F095E0C1
:102AA000FE013196A3E8B2E001900D929A95E1F70C
:102AB00095E0E3E8F2E0D60101900D929A95E1F7F6
:102AC0002596E8E00C94803268EE7EEF90E080E09E
:102AD0000E94683360E082E090E00E944A3360E048
:102AE00083E090E00E944A331092770210927602BF
:102AF00060E084E090E00E944A3364E082E290E08B
:102B00000E944A3360E085E090E00E944A3360E032
:102B100086E090E00E944A336FEF87E090E00E94E9
:102B20004A3340E050E0BA0188E090E00E945C3314
:102B300060E08DE090E00E944A3340E050E0BA014E
:102B400088E190E00E945C3360E087E190E00E94C1
:102B50004A3340E050E0BA018CE190E00E945C33DF
:102B600070E060E080E290E00E94683340E050E076
:102B7000BA0188E190E00E945C3340E050E0BA0185
:102B80008FE090E00E945C3340E050E0BA0183E1C6
:102B900090E00E945C3308951F920F920FB60F923F
:102BA00011242F933F934F935F936F937F938F9352
:102BB0009F93AF93BF93EF93FF938091E10082FFC8
:102BC00009C08091E20082FF05C08091E1008B7F07
:102BD0008093E1008091DA0080FF24C08091D800CA
:102BE00080FF20C08091DA008E7F8093DA00809190
:102BF000D90080FF9DC080E189BD82E189BD09B413
:102C000000FEFDCF81E080932404809117048111A0
:102C100009C00E9493060E945E078091E2008460D2
:102C20008093E2008091E10080FF17C08091E20074
:102C300080FF13C08091E2008E7F8093E20080913C
:102C4000E20080618093E2008091D80080628093EE
:102C5000D80019BC85E0809324048091E10084FFB2
:102C60002BC08091E20084FF27C080E189BD82E112
:102C700089BD89B5982F917080FFFBCF8091D800D6
:102C80008F7D8093D8008091E1008F7E8093E1005A
:102C90008091E2008F7E8093E2008091E20081606B
:102CA0008093E20080912504882309F447C084E0E2
:102CB00080932404809124048091E10083FF27C045
:102CC0008091E20083FF23C08091E100877F8093A1
:102CD000E10082E080932404109225048091E100B9
:102CE0008E7F8093E1008091E2008E7F8093E200EE
:102CF0008091E20080618093E20042E060E080E049
:102D00000E942C078091F00088608093F000FF9172
:102D1000EF91BF91AF919F918F917F916F915F9153
:102D20004F913F912F910F900FBE0F901F901895CC
:102D300019BC109224041092170474CF8091E30000
:102D400087FD93E090932404B5CF78941F921FB62B
:102D50001F9211248F939F93AF93BF938091100480
:102D600090911104A0911204B09113040196A11D39
:102D7000B11D8093100490931104A0931204B0939A
:102D80001304BF91AF919F918F911F901FBE1F9011
:102D900018959C014FB7F8948091100490911104FC
:102DA000A0911204B09113044FBF821B930B08959E
:102DB0002FB7F8948091100490911104A0911204FF
:102DC000B09113042FBF08950E94D8169C019091D2
:102DD000170380911803982B21F03093140320934C
:102DE00013039091190380911A03982B21F03093CB
:102DF000120320931103E0910B04F0910C0430971F
:102E000049F082E0809315030480F581E02D85E18F
:102E100093E00995089590E080E00E94570890E0C3
:102E200080E00E944108109205040E94630E86E033
:102E3000E5E1F3E0DF011D928A95E9F710920F03B7
:102E400010920E03109210030E94E41608959093BE
:102E50007702809376020E940B1708951092060461
:102E6000E2E0F2E086E0DF011D928A95E9F70E9438
:102E70000B170895AAE2B0E0E0E4F7E10C946932A0
:102E800086E294E02091F100FC012193CF01F4E06F
:102E90008E329F07B9F780912704833009F470C000
:102EA000B8F4813009F447C0823009F4B1C0809190
:102EB000E80083FF7EC280912604909127049A3017
:102EC00008F077C2E92FF0E0E058FC4C0C94D332C4
:102ED0008A3009F48CC08B3009F46FC0893039F71F
:102EE00080912604813219F780912A0490912B0455
:102EF0000297E8F68091E800877F8093E800809150
:102F0000E80082FF38C09091F3008091F2000297B0
:102F100031F48091F100813011F0863021F48091FC
:102F2000F100809319048091E8008B778093E8008A
:102F30000E940D07BCCF80912604813A09F0B7CFDB
:102F40008091E800877F8093E80080912A04909127
:102F50002B04892B61F468E08AE194E070E00E9420
:102F6000B9078091E8008B778093E800A0CF60E0FC
:102F700090E080E0F3CF809124048111C0CF97CFFF
:102F800080912604813A09F092CF80912A04909191
:102F90002B04892B09F08BCF8091E800877F8093E9
:102FA000E8008091E80080FFFCCF8091970180933A
:102FB000F1008091E8008E77B9CF809126048132AC
:102FC00009F075CF80912A0490912B04892B09F088
:102FD0006ECF8091E800877F8093E8000E940D0704
:102FE00080912804809397010E942E1760CF8091D2
:102FF0002604813209F05BCF8091E800877F8093BF
:10300000E8000E940D0780912904809318044FCF97
:1030100080912604813A09F04ACF8091E800877FA9
:103020008093E8008091E80080FFFCCF8091180435
:10303000BECF803899F0823809F0BBC180912A0454
:103040008F70873008F0B5C18093E9008091EB0064
:1030500085FB882780F91092E90006C08091220440
:1030600090912304911182609091E800977F909352
:10307000E8008093F1001092F1008091E8008E77D3
:1030800094C1882309F482C1823009F092C18091F1
:103090002804811185C180912A048F702FEF280F99
:1030A000263008F086C18093E9002091EB0020FFD4
:1030B00077C1933031F48091EB0080628093EB0014
:1030C0006FC19091EB0090619093EB0021E030E0B4
:1030D00001C0220F8A95EAF72093EA001092EA00D5
:1030E0008091EB008860EACF811163C110912804C0
:1030F0001F778091E3008078812B8093E30080919B
:10310000E800877F8093E8000E940D078091E80027
:1031100080FFFCCF8091E30080688093E30082E031
:10312000111183E08093240444C18058823008F058
:1031300040C180912804909129048C3D23E092079E
:10314000A1F583E08A838AE289834FB7F894DE0190
:10315000139620E03EE051E2E32FF0E05093570059
:10316000E49120FF03C0E295EF703F5FEF708E2F78
:1031700090E0EA30C0F0C7968D939D932F5F243185
:1031800059F74FBF8091E800877F8093E8006AE29B
:1031900070E0CE0101960E94B9078091E8008B771C
:1031A0008093E80006C1C096E7CF40912A04509171
:1031B0002B04292F33272330310509F444C078F537
:1031C0002130310509F46FC08BE390E0EDE2F7E0C8
:1031D0002230310509F0EDC02091E800277F2093CF
:1031E000E80020912C0430912D048217930708F4F5
:1031F0009C0140E02115310509F064C0411162C015
:103200008091E80082FDC9CF80912404882329F2AF
:10321000853019F28091E80083FFF2CFBECF2132D2
:103220003105A9F12232310509F0C3C0411551051C
:1032300009F443C04130510509F0BBC08BE790E071
:10324000E2E7F6E0C9CF992781309105C1F00097F8
:1032500059F0029709F0ADC0EAE7F7E0E4918E2F4C
:1032600090E0EAE7F7E007C0E4EAF7E0E4918E2FA8
:1032700090E0E4EAF7E0009709F49BC0ADCFE8E8FE
:10328000F7E0E4918E2F90E0E8E8F7E0F4CF411505
:10329000510571F04130510509F08BC089E090E093
:1032A000E8E5F7E099CF82E190E0E8E6F7E094CF37
:1032B00089E090E0EFE3F7E08FCF80E490E0EDEE7F
:1032C000F6E08ACF80912404882309F466CF853004
:1032D00009F463CF8091E80083FD5FCF8091E8001F
:1032E00082FD8ECF8091E80080FF84CF9091F30023
:1032F0008091F2002115310519F08830910550F0C8
:1033000041E0089709F040E08091E8008E778093D3
:10331000E80070CF44914093F1003196215031097B
:103320000196E8CF803809F044C08091E800877F9B
:103330008093E800809125048093F1009ECE811156
:1033400038C0109128041230A0F58091E800877FE2
:103350008093E800109325040E940D07112311F0BB
:1033600084E005C08091E30087FDFACF81E080937F
:10337000240442E061EC81E00E942C0742E261EC0F
:1033800082E00E942C078091240413C080912804BD
:10339000813079F481E0933009F080E08093230458
:1033A0001092E9008091E800877F8093E8000E94F6
:1033B0000D078091E80083FF0AC08091E800877FB5
:1033C0008093E8008091EB0080628093EB00AA96E6
:1033D000E3E00C9485321F920F920FB60F921124E6
:1033E0002F933F934F935F936F937F938F939F930D
:1033F000AF93BF93CF93DF93EF93FF93D091E90007
:10340000DF708091EC00C82FC17080FDC0E8109281
:10341000E9008091F000877F8093F00078940E940B
:103420003A171092E9008091F00088608093F000D4
:10343000CD2BCF70C093E900FF91EF91DF91CF9139
:10344000BF91AF919F918F917F916F915F914F91BC
:103450003F912F910F900FBE0F901F9018950E94D3
:103460002E172FEF84E39CE0215080409040E1F73D
:1034700000C0000088E19AE00FB6F894A895809308
:1034800060000FBE90936000FFCF8823C9F19CEFCE
:10349000980F913A78F4E2E0F2E09191891303C039
:1034A000DF0111971C9292E0E830F907B1F70E9412
:1034B000630E089590E2980F983050F4877091E071
:1034C00001C0990F8A95EAF7892F0E94690CEFCF06
:1034D0009BE5980F933028F490E080E00E94570815
:1034E000089598E5980F973128F490E080E00E94C5
:1034F000410808958D3E20F00E943D090E94E41687
:103500000895CF93DF93EC010E94451ACE010E94EB
:10351000720D9E01205E31092830310510F0CD2B4F
:1035200029F40E94F60EDF91CF9108950E94E50ED6
:10353000FACFFC018281813061F48FE39CE901972D
:10354000F1F700C00000FB01808191810E94811A87
:1035500008958230E9F7FB0182819381F7CFCF9301
:10356000C82F8823B1F08CEF8C0F813A00F5E2E090
:10357000F2E088E092E0DF012D91C21761F08A1736
:103580009B07D1F76C2F80E092E00E9427080E94F1
:10359000630ECF9108952191C21303C0DF011197EB
:1035A0001C928E179F07B9F70E94630EEBCF80E243
:1035B0008C0F883068F4C77021E030E001C0220F22
:1035C000CA95EAF780910604822B80930604DFCF28
:1035D000EBE5EC0FE33040F4F0E0E856FE4F80817D
:1035E00090E00E945708D5CFE8E5EC0FE73150F4A2
:1035F000F0E0EE0FFF1FE556FE4F808191810E94A3
:103600004108C7CFCD3E28F28C2F0E94F8090E94B6
:10361000E416BFCF1F93CF93DF93182FCAE0D0E0FB
:10362000893311F4C0E5D0E0812F0E94AF1A8FE9F1
:103630009FE00197F1F700C000002197C1F7812FAB
:103640000E94451ADF91CF911F9108950F931F9308
:10365000CF93DF93C62FD42F022FFC0182818823C2
:10366000A9F0609330040E94D81690932F048093A1
:103670002E04C77081E001C0880FCA95EAF70E9446
:10368000FD0EDF91CF911F910F910895809130042D
:10369000681332C080912E0490912F040E94C916A5
:1036A000883C910548F510E21D0FCD17B9F080E276
:1036B0008C0F883040F4C77081E001C0880FCA9534
:1036C000EAF70E94F60E183048F481E09D2F9770BB
:1036D00001C0880F9A95EAF70E94FD0E802F0E9484
:1036E0000A1B183070F6D77081E001C0880FDA9598
:1036F000EAF70E94F60EC5CFC77081E001C0880FBF
:10370000CA95EAF7F6CFCF93C62F811109C089EA8F
:10371000611101C08AEA0E940A1B81E0CF910895DD
:103720008130D9F780913104909132040E944E0D7E
:10373000882339F0833088F781E5C111ECCF82E529
:10374000EACF8EE4C111E7CF8BE4E5CFA1E0B0E092
:10375000ECEAFBE10C946332EE24E394F12C0BE9E8
:1037600012E09E012F5F3F4F4CE852E063E082E0A1
:103770000E949314C82E882339F100E080E01DC018
:10378000D090C202D00E2D2D30E0A9014F515D4FD7
:103790007A01E1E0F0E0EC0FFD1FE00FF11D108178
:1037A000FA019081191BB12E1B149CF0912F17FD6B
:1037B00090E0191B111118C00F5F9091C1020917F9
:1037C000F8F281110E94590C8C2D2196E9E00C949D
:1037D0007F32BA94F70180818F5F808361E08D2D05
:1037E0000E94831B8C2DE0CF1F5FF70180818150E9
:1037F000808360E08D2D0E94831B8C2DDBCFCF93C7
:10380000DF93EC010E94720D9E01205E3109283089
:10381000310510F0209741F40E94FD0E8C2F0E947C
:10382000AF1ADF91CF9108950E94EC0EF7CFFB0104
:10383000808191810E94FF1B0895CF93DF93EC015B
:103840008A81823041F4FB01828193810E94FF1BB7
:103850008D8182608D83DF91CF9108950E948A12BD
:10386000882319F00E94D81608950E94C012CB0137
:1038700008956091FA03669570E041E050E08EE8AB
:1038800091E00E941333892B19F481E08093240383
:103890000E942E1C90931E0380931D03809125038C
:1038A00084608093250308959091FA0390FF31C0BE
:1038B000917081112FC092609093FA03809125033B
:1038C000816080932503662351F06091FA03709123
:1038D000FB038091FC039091FD030E94DA1260913A
:1038E000FA03669570E041E050E08EE891E00E94B6
:1038F0001333892BB1F00E948A0881E08093200362
:1039000020E04091FD036091FC038091FB030E9445
:10391000ED120895803110F09E61CECF880F982B64
:10392000CBCF0E94391CE9CF21E030E0A90102C0D1
:10393000440F551F8A95E2F7CA012091260366239A
:1039400099F0822B809326038091250380618093D8
:10395000250380912403811106C08091FA0360E061
:1039600086950E94541C089580958223EBCFCF93B7
:10397000DF93EC01009719F060E080FF09C06091CF
:103980007602709177026115710569F16170772790
:10399000617080E00E94941C60E0209721F0BE01DD
:1039A00076956795617081E00E94941C60E0209795
:1039B00031F0BE017695679576956795617082E0E6
:1039C0000E94941C60E0209739F0BE0183E0769558
:1039D00067958A95E1F7617083E00E94941CCE019F
:1039E000DF91CF91089561E070E0D2CF0E94B71CC3
:1039F00090933204809331040E940B1708958091B4
:103A00003104909132049C01267033272630310511
:103A100021F488600E94F61C0895877FFBCF21E087
:103A200030E002C0220F331F8A95E2F720953095CF
:103A30008091310490913204822393230E94F61CDA
:103A4000089590916C028095892380936C02282FB1
:103A5000277091F4282F082E000C330B92171306B1
:103A600059F09091BF0292FF07C085958595859585
:103A70000E940F1D10926C020895CF93C091BF0257
:103A8000C2FB992790F9981791F080FBC2F9C09377
:103A9000BF026091BE0284E090E00E944A336C2F26
:103AA00082E290E00E944A3382E00E94211DCF9181
:103AB000089521E030E002C0220F331F8A95E2F71B
:103AC0008091310490913204822B932B0E94F61C3A
:103AD00008958091FA038695815009F48FE061E0A2
:103AE0000E94541C08958091FA0386958F5F80315F
:103AF00008F081E061E00E94541C08959091FA035F
:103B000090FF08C09695981728F0961718F40E9411
:103B1000731D089561E00E94541C0895AFE0B0E069
:103B2000E4E9FDE10C945F328E010F5F1F4F8AE0E4
:103B3000D8011D928A95E9F78BECC82E81E0D82E2A
:103B4000F12CE12CAA24A394B12C26ED822E21E0A5
:103B5000922EF60181916F018F3F09F442C0F894D3
:103B6000E82FE295EF70F0E021A18F70A50102C06F
:103B7000440F551F8A95E2F7CA01922F982B91A303
:103B800092A18095892382A3789400C0E0EDF1E0B2
:103B9000712C31E021912F3F09F46BC0A22FA29527
:103BA000AF70B0E090968C9190E02F7002C0959528
:103BB00087952A95E2F780FD5CC0832F782A330F22
:103BC0008E169F0639F7F601319780818F3F11F0ED
:103BD0000E94540A50EA5A95F1F7F801EE0DFF1DC4
:103BE00070828FEFE81AF80A95E0E916F10409F0FF
:103BF000B0CF4AE050E0B80182EB92E00E9420335F
:103C0000009741F02AE0F801A2EBB2E001900D929A
:103C10002A95E1F70091BD02892B69F181E080933B
:103C20007A020E94D816909379028093780280914C
:103C30007802909179020E94C916059700F110E070
:103C400009531D4F45E050E062EB72E0C8010E944D
:103C50002033D12C892B51F085E0E2EBF2E0D80142
:103C600001900D928A95E1F7DD24D39410927A02A7
:103C700007C080E0A3CF80917A028111D8CFD12CE8
:103C80000E948A12C82EE091BD02DE011B967D01C2
:103C9000882309F47AC085E01D928A95E9F70E2FF2
:103CA00010E009531D4F8091AD028A30D8F548E3EA
:103CB00055E1B701C8010E945712882309F454C086
:103CC00046EA5BE1B701C8010E945712882309F454
:103CD0004BC04DE354E1B701C8010E94571288233D
:103CE00009F442C049ED53E1B701C8010E945712DF
:103CF0008823D1F11092AD028091BC0290E045E0A2
:103D000050E0B70189539D4F0E94203321E020935A
:103D10008102892BE1F4C12C8C2D8D292F96EDE0A9
:103D20000C947B3280917B0290917C020E94C91698
:103D3000843F914008F0BBCF80918102882359F3E2
:103D400085E0F70111928A95E9F710928102A0911E
:103D5000BC02B0E0A953BD4F85E0FE013B96019047
:103D60000D928A95E1F7D8CF8091AD028F3F31F067
:103D70008F5F8093AD028A3008F4BECF0E94D816C0
:103D800090937C0280937B02D7CFF0E0E953FD4F04
:103D900085E0A5E9B2E001900D928A95E1F765E032
:103DA00070E085E992E00E946D0880939402409152
:103DB000E60250E06091E50270E06F517D4FC7016F
:103DC0000E942D338B8580939B0261E070E0C701D8
:103DD0000E946D0880939A0280909C0290909D02B0
:103DE000A0909E02B0909F0280917D0290917E02F1
:103DF000A0917F02B091800288169906AA06BB06A0
:103E0000D1F080927D0290927E02A0927F02B092C9
:103E100080020E948A1281110EC00E941B08861A1D
:103E2000970AA80AB90A8092AE029092AF02A092B5
:103E3000B002B092B1028091A702882309F46CCF3E
:103E400084FF04C09091A8029093260380FF0DC0C8
:103E50008091A00280FF2AC09091FA039160909314
:103E6000FA0360E086950E94541C8091A70281FFAE
:103E700009C020E04091A3026091A2028091A102BA
:103E80000E94ED128091A70282FF06C08091A602D7
:103E9000882379F00E94391C8091A70283FF03C018
:103EA00081E0809320031092A70236CF0E943F1238
:103EB000DCCF0E948A08F0CFA5E0B0E0E2E6FFE1A7
:103EC0000C9460327C01DC0113968D919C911497C7
:103ED000892B39F08C9111969C9189238F3F09F0A1
:103EE0007CC62596ECE00C947C320E947A0C182F4C
:103EF000682F89819A810E94EE0C69817A81812FD5
:103F00000E94AE0A8C01F70182818823E1F0809142
:103F10000704909108040097B1F08017910799F079
:103F2000FEE08F9FC0011124FC01EE5AFE4F20815C
:103F300024602083835B9E4FDC010D931C930E94C1
:103F4000BA0E10920504033BBDE51B0709F457C0E8
:103F500028F5023BFDE51F0789F1C80197558F3F02
:103F6000910509F008F466C0043FFCE51F0709F459
:103F700016C108F0FFC0093D3CE5130709F40BC169
:103F80000A3D4CE5140709F416C1083D5CE5150728
:103F900009F095C026E241EE61EEF9C0043B2DE543
:103FA0001207D9F1053B3DE51307B9F6F701828108
:103FB0008823E1F183E00E94591D0EC0D7011296BB
:103FC0008C91882349F061E083E090E00E944A33BD
:103FD00081E090E00E94271780916C02877009F4BD
:103FE00080CFD70112968C91882309F47ACF8091E3
:103FF000BF0282FF76CF82E00E94211D72CFF701BF
:104000008281882331F081E00E94591D0E94FF1CAB
:10401000E3CF81E00E940F1DF9CFD70112968C915A
:10402000882311F082E0F0CF82E0F4CF83E00E9499
:104030000F1DD2CF5801BB242EE0029FF0011124A6
:10404000AF01435B5E4F6A01D70112968C91EE5A25
:10405000FE4F908180FB90F99083882309F482C001
:104060000E94D8169093DD028093DC02F6018281D3
:104070008F5F82838091050490910604892B83834E
:104080008091750284830680F781E02D309731F0AE
:10409000D6011C966D917C91C60109958EE08A9D92
:1040A000F0018B9DF00D1124E35BFE4F858181FFB4
:1040B00056C090E080E09093070480930804F701D5
:1040C0008281882309F49BC5109230040430FDE5F9
:1040D0001F0708F073C00B3F2CE5120730F4C8012E
:1040E00082509C45449708F074C00E94CB13909373
:1040F000BF028093BE0202318CE5180709F474C137
:1041000008F0C0C00930ACE51A0709F44BC108F04B
:104110008AC00530ECE51E0709F434C108F076C00A
:1041200003302CE5120709F425C108F027C180915E
:10413000BE02816002304CE5140709F4A0C0609112
:10414000BE021091BF0284E090E00E944A33612FCA
:1041500082E290E00E944A330E942E173DCF902FBA
:10416000812FA9CFFA01858181FFA9CFCA010E94C1
:10417000A00EA5CF063F8CE51807C9F0A0F027E2F6
:1041800045EE66EE073FACE51A0709F098CFC70188
:104190000E94261B21CF27E245EE65EEF8CF26E2EE
:1041A00041EE60EEF4CF27E245EE64EEF0CF26E27A
:1041B00041EE62EEECCF28E241E0EFCF063A3DE57A
:1041C000130709F492CFE0F402365DE5150709F410
:1041D0008CCF06318CE5180709F003C280910604E4
:1041E0008A7A91E009F490E09093100269E28111DB
:1041F00065E380E092E00E9427080E94630EECCE07
:10420000C8018E5A9D45039720F76FCF8091BE025B
:10421000806207305CE5150791F108F4BFC080911A
:10422000BE0280642CC00D309CE5190709F4C4C09F
:1042300090F48091BE028E7F0B30BCE51B07F9F035
:104240008091BE028C600C30ECE51E07C0F08091BE
:10425000BE028D7F14C00F30FCE51F0709F4BCC0FF
:1042600008F4AEC000313CE5130709F4B9C08091F1
:10427000BE028F7B01314CE5140709F060CF8093BB
:10428000BE025DCF01155DE5150709F4B7C0A8F5BD
:104290000B3F9CE5190709F479C0C0F40431BCE573
:1042A0001B0709F4B9C008F4A5C00531FCE51F07D8
:1042B00009F045CF8091BE0282FB992790F921E059
:1042C000922790FB82F990FB83F9D9CF0D3F2CE523
:1042D000120709F479C008F45DC00E3F4CE51407DD
:1042E00009F476C08091BF0283600F3F5CE515073B
:1042F00009F025CF8093BF0222CF02368DE5180743
:1043000009F495C090F40230ADE51A0709F48DC0A8
:1043100008F478C060E00330EDE51E0709F00FCF28
:104320008EE090E00E944A330ACF0E3AFDE51F0767
:10433000E9F060F49091BE02892F8E7F90FF81603A
:10434000063A3DE5130709F49ACFF9CE0F3A4DE549
:10435000140771F1003B5DE5150709F0F0CE90916F
:10436000BF02892F877F93FF8860C4CF8091BF02EF
:104370008860C0CF8091BE02826081CF8091BE02F2
:1043800084607DCF8091BE02886079CF8091BF022A
:104390008160B0CF8091BF028260ACCF8091BE02BD
:1043A00080616DCF0E942E178091BE02806867CF1A
:1043B0008091BF02877F9ECF8091BE028B7F5FCFAF
:1043C0008091BE02877F5BCF8091BF028E7F92CFAC
:1043D0008091BF028D7F8ECF8091BE028F7E4FCFA6
:1043E0008091BE028F7D4BCF0E942E178091BE021E
:1043F0008F7745CF8091BE02837F41CF8091BF02EE
:104400008C7F78CF8091BF02982F909591708E7F8E
:10441000892B90FB81F96ECF0E942E179091BE02DE
:10442000892F97FB87F980582ACF61E079CF909147
:10443000BE02892F8F7E94FF806121CF85E3E2E069
:10444000F2E028E032E09191891303C0DF01119777
:104450001C922E173F07B9F7D0CE053C4CE5140748
:1044600009F498C0063C5CE5150709F0EAC34AE781
:1044700053E164E873E114C00A3C9CE5190709F4B0
:1044800098C088F4083CBCE51B0709F48DC04DE6D4
:1044900053E160E673E1093CECE51E0709F0D1C386
:1044A0000E94830899CD0B3CFCE51F0709F486C0E8
:1044B0004EE853E160EA73E10C3C2CE5120781F30E
:1044C000C0C3023D3CE5130709F486CDB0F40F3CB0
:1044D0005CE5150709F47FC008F47AC0003D9CE54F
:1044E000190709F479CD6BE086E0013DACE51A07C8
:1044F00009F0A7C30E947E1D6FCD073DBCE51B07D9
:10450000A0F4053DECE51E0708F066CD033DFCE593
:104510001F0709F463C061E08FE0043D2CE512073A
:1045200009F08FC30E94541C57CD0E353DE513078B
:1045300009F452CD86C38091FA0380FF20C08E7F9C
:104540008093FA036091FA037091FB038091FC035E
:104550009091FD030E94DA120E948A08809125033F
:104560008160809325034FEF50E782E04150504037
:104570008040E1F700C000000E94F70F2DCD816060
:104580008093FA0361E08695CDCF49E65DE163E76C
:104590007DE186CF43E75DE169E67DE181CF44E8D7
:1045A00053E16AE773E17CCF40E653E16DE673E1E6
:1045B00077CF46E453E163E573E172CF43E553E11E
:1045C00066E473E16DCF40EA53E16EE873E168CFD2
:1045D00061E081E0A7CF65E082E08CCF6EE08CE007
:1045E00089CF0B359DE5190709F43DC058F4011535
:1045F000BCE51B0791F00F3D1C4509F022C30E944A
:10460000641509C00D35FDE51F0719F170F1083A71
:104610001D4509F016C30E942F1A0E942E174FEF56
:1046200054E38CE0415050408040E1F700C000006E
:1046300087E797E7909301088093000888E19AE064
:104640000FB6F894A895809360000FBE9093600019
:10465000FFCF8091BF0282FB882780F991E08927F4
:104660000E943D1DEEC281E0FBCF80E0F9CFC80182
:104670000E94BB0CD82EF4C2FD2DFF70CF2E8D2DC5
:10468000807F19F0C29490EFC9221123B9F0CC2099
:1046900069F080E2800F883010F0A11009C080918D
:1046A0000604C82AC09206040E94630E802F4BC0E5
:1046B00080910504C82AC0920504F6CF802F0E947D
:1046C000451ACC2009F441C0005E8C2D083010F052
:1046D000A11003C00E94690C02C00E94620C0E94DB
:1046E000630E33C02D2D2F70C22E8D2D807F803212
:1046F00019F0C29480EFC822AA20A1F031E0A316DD
:1047000009F490C0112309F49AC0BB2009F490C0A9
:10471000D70115968C91159780FFC8CF8F7015968D
:104720008C9386C02091BF0222FD59C0112309F449
:104730004EC0CC2039F080910604C82AC0920604ED
:104740000E94630E80E00E94AF1A282D2850330B80
:104750002430310510F40E94AF12112379F08D2D11
:10476000807F803619F436EFA31641F08091110254
:10477000823009F02AC283E0809311029920B1F0BF
:1047800080916C0280FD12C0D70112961C92859513
:10479000859585950E94591DC7010E945C1F8091D7
:1047A0006C028595859585950E940F1D85E0F70122
:1047B000DE01119601900D928A95E1F709811A8127
:1047C000C8010E94BB0CB8010E94AE0A8ACB80E0EF
:1047D0000E94451ACC2009F4B8CF8C2D7BCF112331
:1047E000A1F0909175028C2D892BB11003C00E940D
:1047F000FD0EABCF41E0B412FACF22FFA6CF98173F
:1048000009F4A3CF80937502A0CFB11006C00E9417
:104810005C0C8C2D0E94F60E98CF51E0B51609F471
:1048200094CFF5CF112331F085E08B1508F48DCFAF
:104830008C2DDDCF94E09B1508F487CFEACFBB2009
:1048400041F3B9E3AB124AC1EFEFF7EE23E0E150D9
:10485000F0402040E1F700C00000802F0E94451A80
:1048600074CF8D2D86958695837069F0813009F01F
:104870006CCF802F9D2D9370111102C090E080E0CD
:104880000E94410862CF802F9D2D9370111102C0AC
:1048900090E080E00E94570858CF802F112329F024
:1048A0000E94F8090E94E41650CF0E943D09FACFF9
:1048B0008D2D837009F040C0111147CF402F4295D4
:1048C00046954770440F440F802F8F7090E0042E60
:1048D00002C0880F991F0A94E2F730E020E004FF3D
:1048E00009C02FE030E002C0220F331F4A95E2F7E3
:1048F000209530954D2D469546954370423099F060
:1049000078F46091760270917702413039F0822B11
:10491000932B862397230E94271717CF862B972B3D
:10492000822B932BF8CF822B932B20917602309100
:10493000770282279327EFCF8695112311F08D2DD3
:104940008170882309F401CF402F42954695477026
:10495000440F440F802F8F7090E0042E02C0880F08
:10496000991F0A94E2F730E020E004FF09C02FE02D
:1049700030E002C0220F331F4A95E2F720953095B0
:104980004D2D469546954370423099F078F46091EC
:10499000310470913204413039F0822B932B8623FD
:1049A00097230E94F61CD1CE862B972B822B932B1C
:1049B000F8CF822B932B209131043091320482273F
:1049C0009327EFCF9D2D9F70C92E112329F0892F9A
:1049D0000E94591D802F0BCF802F0E94F60E8C2D28
:1049E0000E940F1DB2CE802FA2EFAA16A1F1AA1528
:1049F00070F0B0EFAB16D1F0E1EFAE1691F01123ED
:104A000009F460C0B11052CE8D2D8F7128C0F3EF24
:104A1000AF1641F124EFA212F2CF8091BF0282FDC6
:104A200032C08D2D8F711123D9F219C0112371F06D
:104A300034E03B1508F489CE2D2D2F7181E090E0F4
:104A400002C0880F991F2A95E2F7B5CF45E04B15B4
:104A500008F47BCEF1CF8D2D8F711111C1CF0E9443
:104A6000591D73CE90E080E0112309F49ACF21E024
:104A700030E09D2D9F71D90102C0AA0FBB1F9A95EE
:104A8000E2F7CD018ECF112391F00D2D0F71802F04
:104A90000E94591D8091BF0282FF07C0B8E00B9FA2
:104AA000C0011124836080936C02802FD8CF81E0F5
:104AB0000E94211DE1E0EB1508F047CE82E00E9444
:104AC000211D43CEBB2079F0893341F4FFEF27EE5F
:104AD00033E0F15020403040E1F7BDCE8FE39CE958
:104AE0000197F1F7B8CE8D2D8F717ACFE0E1E00F0D
:104AF000E73008F03FC0F0E0E657FC4C0C94D332AE
:104B0000112309F422CE8091330291E0892780930A
:104B100033021BCE1093330218CE81E08127F7CFEA
:104B2000111113CE81E0F3CF11110FCE1092330289
:104B30000CCE112321F082E080931102F3CF8091FB
:104B40001102823021F481E080931102FECD833086
:104B500009F0FBCD10921102E9CF112339F08091B9
:104B60003202882381F210923202EFCD94E09B153D
:104B700050F6EBCD80913202BB20D9F0882341F072
:104B80008091330291E089278093330210923202A0
:104B900011118CCDAFE3BCE91197F1F700C0000013
:104BA000802F0E94451A86E0F70111928A95E9F755
:104BB000CCCD882309F4C9CD1111C7CD8091330222
:104BC00091E0892780933302CECF813009F0D6CD92
:104BD0001092110210923302D1CD85E0F701DE016F
:104BE000119601900D928A95E1F7F7012281898152
:104BF0009A8121117AC90E94BB0C182F7EC90631F7
:104C0000FCE51F0709F46EC08091060482720D3C1A
:104C10009CE5190709F4D7CC08F053CC073CBCE558
:104C20001B0709F4BCCC08F027CC043CFCE51F07AB
:104C300009F4ABCC08F011CC033C3CE5130709F4B4
:104C40007ACCF701828100811181882309F40FCD8C
:104C5000C8010E947A0CD82E682FC8010E94EE0C61
:104C6000B8018D2D0E94AE0A0E94C90A082FD92EC4
:104C7000A82ED70112961C9112971596BC90B2944B
:104C80003FE0B32280916C028770E9F0912E1123EE
:104C9000D9F0892F807F803449F090E2900F9830CE
:104CA00090F0803619F4B6EF0B1769F08091BF02CF
:104CB00082FF09C082E00E94211D80916C028770F2
:104CC000992493948111912C8D2C82942FE082222F
:104CD000EBE0E81508F439CDE82DF0E0EF56FC4C98
:104CE0000C94D332809110028111A8CB89E2A7CB1A
:104CF0001F93CF93DF9380913902807F09F049C0E1
:104D000080913602882309F444C080916B02D091CF
:104D10003A026091340270913502A0913702B0914D
:104D20003802C62FC72316E0D81799F190E01097E4
:104D300011F0CF3F19F401968770F6CF189F9001BC
:104D4000199F300D1124F901E55CFD4F4181471396
:104D5000F2CF40814613EFCF42814111ECCF438126
:104D600054814A1B5B0B483C510528F7809139025E
:104D70008F70806180933902F901E05CFD4F808182
:104D80008F708061808384E392E00E945C1F0E94A8
:104D9000700CDF91CF911F910895A1E1B0E0E3ED98
:104DA000F6E20C9462328C0185E0F801DE011D967A
:104DB00001900D928A95E1F7F801E28084E3A82E34
:104DC00082E0B82E6091370270913802611571054A
:104DD00009F416C19091340240913502892F842341
:104DE0008F3F09F40DC120813181C380D480F090C0
:104DF0003602F601E61BF70BFF2009F4E8C08091AC
:104E00003902582F507FE83CF10508F0ABC0511132
:104E10006BC0FE2C431314C0921312C0E11010C0DB
:104E20008F70806180933902C5010E945C1F809160
:104E30003902F80185838F2D6196EAE00C947E3269
:104E4000C114D10429F0822F83238F3F09F001C1BF
:104E500080E0F82FF170DF2E80FF3CC080916B0264
:104E600040913A0256E0841315C02D873E878D8508
:104E70009E850E94AE0C292F22952F702230F0F0D3
:104E8000243018F59F70F1F0F8019581907FD1F4EE
:104E9000D12C1EC090E0589FF001599FF00D1124B5
:104EA000E55CFD4F6181361306C06081261303C0A7
:104EB0006281E6120FC001968770D5CF9F7011F006
:104EC000882331F3805E883018F3C8010E945C1F8C
:104ED000FD2CB1CFEE2009F4AECF80913902816074
:104EE00080933902F12CA7CF431312C0921310C044
:104EF000E1100EC0F8018583C8010E945C1F86E0A6
:104F0000F801A4E3B2E001900D928A95E1F793CF06
:104F1000C8010E94240D882309F1EE20F9F0809148
:104F20003902803270F02091340230913502388796
:104F30002F831986DB86CA868C87CE0107960E944E
:104F40005C1F86E0F801A4E3B2E001900D928A951F
:104F5000E1F70E947826FF24F3946DCFC8010E94E8
:104F60005C1FF9CF51110AC084E392E00E945C1FDC
:104F700086E0F50111928A95E9F7B4CF43130FC08B
:104F800092130DC0E1100BC0F8018583C8010E9487
:104F90005C1F86E0F50111928A95E9F74CCFC801B4
:104FA0000E94240D8823D1F2EE20C1F280913902B3
:104FB000803238F220913402309135023A832983CD
:104FC0001B82DD82CC828E83CE010196B8CFE83C75
:104FD000F105F8F6FE2CEE2009F2431303C09217F8
:104FE00009F48DCFC8010E94240D8111AACF8091B0
:104FF0003902816080933902C8010E945C1F1BCF77
:10500000EE2009F4ABCFC8010E94240DF82E8823AE
:1050100009F4A4CF86E0F801A4E3B2E001900D9278
:105020008A95E1F780913402909135020E94AE0C8E
:1050300092959F70963051F4863F41F080913302F3
:1050400091E0892780933302909332020E94782660
:10505000F2CE81E08E25FDCEA7E1B0E0E2E3F8E2FA
:105060000C9468326D8B7E8B8F8B252F6111109283
:1050700005048E899F89892B19F02F3F09F07DC087
:105080001A8A198A4B8B2C8B85E0FE017396DE0100
:105090001D9601900D928A95E1F786E0FE013D96FE
:1050A000DE01179601900D928A95E1F7CE010796E1
:1050B0000E94CD26882379F016E080916B029091B2
:1050C0003A02891347C06796E4E00C948432802F3B
:1050D0008095892387C086E0FE013796DE01119610
:1050E00001900D928A95E1F78A859B85892B21F3A2
:1050F00088859F8189238F3FF9F220913A0230E021
:10510000C90101968770992740916B0248171906CB
:1051100071F40E942E1710923A0210926B0286E0F0
:10512000E4E3F2E0DF011D928A95E9F7C5CF96E04E
:10513000929FD001939FB00D1124A55CBD4FFE013D
:10514000319601900D929A95E1F780933A020E9470
:10515000700CB2CF819FC0011124855C9D4F0E94CD
:10516000CD26882309F4AFCF80916B0290E00196A1
:105170008770992780936B02A0CF2A3008F080CFE8
:10518000463008F07DCFE42FF0E086E0289FE00D68
:10519000F11D1124DF01A770BB2701E010E001C061
:1051A000000FAA95EAF7DF0193E0B695A7959A95C7
:1051B000E1F7A85FBD4F9C9180913302611102C05D
:1051C000892F8023882309F482CFAF01440F551F14
:1051D000FA01EF59FE4F2491405A5E4FFA01449173
:1051E000892F802B8C934CCF1F921FB61F921124B6
:1051F0008F939F93AF93BF9380910F04811113C03E
:105200008091100490911104A0911204B0911304A4
:105210004196A11DB11D8093100490931104A09399
:105220001204B0931304BF91AF919F918F911F907F
:105230001FBE1F901895CDB7DEB762970FB6F894D2
:10524000DEBF0FBECDBF85B7806885BF85B78068DC
:1052500085BF84B7877F84BF0FB6F894A8958091E7
:105260006000886180936000109260000FBE80E84B
:1052700090E00FB6F89480936100909361000FBEA8
:1052800082E59AE09093FF018093FE010E949306CD
:105290000E945E078091E20084608093E20078942F
:1052A000809124048823A1F01091E9001F7090914F
:1052B000EC00892F817090FD80E8182B1092E90096
:1052C0008091E80083FD0E943A171F701093E90057
:1052D00082E084BD93E095BD9AEF97BD80936E0008
:1052E0001092AE021092AF021092B0021092B10270
:1052F0000E948A128093400180914001882309F422
:1053000051C11092920183E2809393010E948A120C
:1053100081110E94E430809140018091400195E02C
:10532000811190E09093BD0285E0891B8093BC02BF
:105330000BEC11E090EDE92E91E0F92ED8018D9162
:105340008D018F3F11F00E94540AE016F106B1F76B
:1053500000ED11E086EDE82E81E0F82EF801819154
:105360008F018F3F11F00E94540AE016F106B1F749
:105370008AE0E7ECF2E0DF01282F1D922A95E9F799
:10538000E2EBF2E0DF011D928A95E9F790E080E020
:105390000E944433883E9E4F11F00E94641582E0C3
:1053A00090E00E9436338093D1020E94CB139093F9
:1053B000BF028093BE0283E090E00E94363390E00B
:1053C0000E94271780913104909132040E94B71CEB
:1053D0000E948A12882309F4E9C083E080930903BC
:1053E00080FDE6C080E8809333040E949E2F6DE02C
:1053F00070E08BEC93E00E94070F892BE9F5809118
:10540000090363E070E081FDD5C088EC93E00E9461
:10541000070F892B89F56DE070E088EB93E00E941F
:10542000070F892B49F50E941B08605A75418F4F61
:105430009F4F6093FF037093000480930104909347
:105440000204E6E3F4E080E092E0DF019C011D92BB
:1054500021503040E1F7F0933D06E0933C068FEF9A
:105460009FEF909335048093340481E0809304048B
:105470008093030410920A038091C00281113BC003
:1054800090E080E00E944433883E9E4F21F00E94CD
:1054900064150E94B21388E090E00E943E3360934E
:1054A000FA037093FB038093FC039093FD038091B8
:1054B00025038360809325036E7F71F40E94B213ED
:1054C00088E090E00E943E336093FA037093FB0300
:1054D0008093FC039093FD030E9491080E948A0828
:1054E0008091FA0380FF04C060E086950E94541CFE
:1054F00081E08093C0029091400181E098279093D1
:10550000E502482F491B4093C202909140018093CD
:10551000E602909140018093C10280914001811187
:1055200006C084EF8093860185EF809385012091EA
:105530008601E22FE295EF70F0E061A12F7081E02B
:1055400090E0AC0101C0440F2A95EAF7342F309562
:10555000362331A322A1242B22A320918501E22FFF
:10556000E295EF70F0E031A12F7001C0880F2A950D
:10557000EAF7982F9095932391A392A1892B82A368
:105580008FE891E00197F1F700C000001091E6026A
:1055900067EE72E046E851E085E8E82E81E0F82EFB
:1055A000FB0133C083E280939201AECE80E016CF40
:1055B00080E219CF85EC93E02ACFDA012D91AD017D
:1055C000822F82958F7090E0DC0190968C9190E014
:1055D0002F7002C0959587952A95E2F78170D701C3
:1055E0009D917D01292F22952F7030E0D901909651
:1055F0002C9130E09F7002C0359527959A95E2F77F
:1056000090E020FD92E0892B81938E2F861B8117DD
:10561000A0F20E948A12811102C00E94E73088ED38
:1056200093E090931C0380931B0361E08AE00E9447
:10563000541C81E491E090930C0480930B0410E4DB
:10564000612E80912404FF24F39400E112E185305F
:1056500009F498C00E948E1DA2EDEA2EA2E0FA2E57
:10566000B7ECCB2EB2E0DB2E2CED32E0D601F70109
:1056700091918D912E173F0709F49FC09817C1F3A0
:105680000E948A12882E10E0D6010D916D01F7015B
:1056900091907F01901629F19026B12CAA24A39411
:1056A000892D8A21B1F08820A1F0BC861D8791E068
:1056B000802F8A2109F490E09E870E94D81681608D
:1056C000782F988B8F874C855D856E8588890E94A1
:1056D0002C28B394AA0CF6E0BF12E2CFF701319761
:1056E00000831F5F1A3081F60E941B08EE24E394AA
:1056F00085C080912404843009F434C00E948A0853
:105700008091C402811109C0F092C4028091FA0311
:1057100081708093C3020E943F120E94310F109249
:105720000F04E8E1F0E00FB6F894A895E09360006C
:105730000FBE6092600083B7817F846083BF83B7B0
:10574000816083BF7894889583B78E7F83BF0FB6BF
:10575000F894A89580916000886180936000109211
:1057600060000FBE80912304882361F00E948E1D8B
:10577000E7ECF2E081918111C1C321ED32E02E17F7
:105780003F07C1F780912404853009F4B2CF0E940D
:105790002E170E94AF121092C4028091C302882378
:1057A00049F08091FA0381608093FA0360E0869566
:1057B0000E94541C0E94391C4DCF981361CF0E9447
:1057C000D8168C018091C5029091C602081719075E
:1057D000A1F08FEF8F83888719860E94D816816089
:1057E000782F9B878A874F81588569858B850E9492
:1057F0002C281093C6020093C502E12C0E948A1245
:105800008823F1F000910704109108040115110597
:10581000B9F08091DC029091DD020E94C916893CAA
:10582000910570F02EE0029FC0011124FC01EE5A98
:10583000FE4F208122FD04C0835B9E4F0E94BA0E62
:1058400080912403882309F464C080912303E091AC
:10585000FA03E695E81BE0931F03823009F073C159
:10586000F0E0E851FC4FE4910E2F10E0F4E1CF2E70
:10587000F2E1DF2E80912003882361F01092200353
:105880000E942E1C90931E0380931D0310922203EE
:10589000109221030E942E1CE0911D03F0911E0323
:1058A0009C012E1B3F0B2F3F3F4798F52091E002B4
:1058B0002223B1F01092E0022091DE023091DF024B
:1058C000821B930B8F3F9F4758F4205D3A483093DB
:1058D000DF022093DE0280912503886080932503F8
:1058E000A0902103B09022030E0F1F1F10931E03E0
:1058F00000931D038DE193E0F6010995809121034A
:1059000090912203892B29F4AB2819F081E0809330
:10591000E002C12CF12C8091E602C81608F43EC1C9
:10592000F1100E94590C80910404882351F1809158
:105930000B0390910C030E94C916C29708F09FC1F7
:1059400020913404309135042115310509F0F3C15B
:10595000809103048823A9F00E941B080091FF0393
:10596000109100042091010430910204601B710B1E
:10597000820B930B6F3F7F4F8F4F9F4710F40E9416
:10598000310FE11001C0F1100E944C0F86E0E5E1FB
:10599000F3E0DE01119601900D928A95E1F71092E5
:1059A0001703109218031092190310921A038B8197
:1059B0009C81892B09F44AC08091130390911403B0
:1059C0000E94C9169C0190910F03992309F4B1C25A
:1059D00025313105D8F19F3F19F09F5F90930F0358
:1059E0001B81112359F00E94D8099FEF11160CF466
:1059F00091E0899F802D1124809317031C8111232E
:105A000059F00E94D8099FEF11160CF491E0899F7C
:105A1000802D112480931803309117033323B1F0A4
:105A200020911803222391F045EB3403C001112487
:105A3000992309F453C29093170345EB2403900173
:105A40001124332309F44EC2309318038D819E81B3
:105A5000892B09F44AC080911103909112030E948E
:105A6000C9169C0190910E03992309F45DC221355A
:105A70003105D8F19F3F19F09F5F90930E031D8170
:105A8000112359F00E94B6099FEF11160CF491E012
:105A9000899F802D1124809319031E81112359F0B1
:105AA0000E94B6099FEF11160CF491E0899F802D9A
:105AB000112480931A03309119033323B1F02091FC
:105AC0001A03222391F045EB3403C00111249923DA
:105AD00009F40CC29093190345EB2403900111249F
