:10000000E3C60000FDC60000FBC600000C9453329E
:10001000F7C60000F5C60000F3C60000F1C60000F8
:10002000EFC60000EDC600000C94AA150C949914BC
:100030000C943A17E5C60000E3C60000E1C60000D4
:10004000DFC60000DDC60000DBC60000D9C6000028
:10005000D7C600000C94FC16D3C60000D1C6000021
:10006000CFC60000CDC60000CBC60000C9C6000048
:10007000C7C60000C5C60000C3C60000C1C6000058
:10008000BFC60000BDC60000BBC60000B9C6000068
:10009000B7C60000B5C60000B3C60000B1C6000078
:1000A000AFC60000ADC60000ABC60000F00F641084
:1000B000F80FC20FC60FFC0FC90FFF0F0A10D40FA5
:1000C0005A10D80F0E10DC0F12103C10E00F161053
:1000D0004610E60F1C102610CD0F0310D00F06108F
:1000E000EB0F2110321052105410BE0FF40F6D1090
:1000F0009310991087108D109F10A510AB10D7107A
:10010000F510FA10FF10041109110E111311181136
:100110001D11221199119911C811C81144126012B0
:10012000821382136512F31204130413A229C9293E
:10013000692BC929692B112A342A692B232B372BC8
:100140000001BFFF1E2301BFFF1E0106BFFFFF24EA
:1001500006BFFFFF0704BFFFFF2A04BFFFFF19020E
:10016000BFFFFF3C02BFFFFFFF000000000001AA2D
:10017000FF1E2301AAFF1E0106AAFFFF2406AAFFF5
:10018000FF0704AAFFFF2A04AAFFFF1902AAFFFF24
:100190003C02AAFFFFFF00000000000180FF1E23B9
:1001A0000180FF1E010680FF80240680FF80070477
:1001B00080FF802A0480FF80190280FF803C02803B
:1001C000FF80FF00000000000100FF1E230100FF70
:1001D0001E010600FFFF240600FFFF070400FFFFCB
:1001E0002A0400FFFF190200FFFF3C0200FFFFFF8F
:1001F0000000000000DA0281FFD9F1DB20A4A62E66
:10020000AF00A0C0D30000A1C8D30000AED580A825
:100210001F408D142000C7019A016D0140010000AC
:100220007F3F1F6432141E140A05536F666C65000D
:100230000A008081828384A0A1A2A3A4C0C1C2C3FA
:10024000C400556E6465660041646A0A004C6F77AD
:10025000657200526169736500426173650A004C02
:1002600041594552000A0A000A000A00808182832F
:100270008485868788898A8B8C8D8E8F90919293C6
:1002800094A0A1A2A3A4A5A6A7A8A9AAABACADAE11
:10029000AFB0B1B2B3B4C0C1C2C3C4C5C6C7C8C988
:1002A000CACBCCCDCECFD0D1D2D3D4004350534C37
:1002B0004B000A0A00556E6465660041646A7573F6
:1002C00074005261697365004C6F7765720042611A
:1002D00073650A004C41594552000A0A004D6F648B
:1002E0000A00436C6D6B0051777274000A0A00803B
:1002F0008182838485868788898A8B8C8D8E8F9076
:1003000091929394A0A1A2A3A4A5A6A7A8A9AAABE1
:10031000ACADAEAFB0B1B2B3B4C0C1C2C3C4C5C658
:10032000C7C8C9CACBCCCDCECFD0D1D2D3D4002967
:10033000001E001F002000210022002B0014001AC4
:1003400000080015001700E100040016000700096E
:10035000000A00E0001D001B00060019000500E275
:10036000003500417EE3002C00A8002A002700266B
:10037000002500240023003000130012000C001898
:10038000001C002F0033000F000E000D000B003486
:10039000002D0037003600100011002E003800310B
:1003A00000427E2800447E01003A003B003C003DB4
:1003B000003E0001001F0238022402230225020130
:1003C000002D021E023302350034000100260227F0
:1003D000020157360237020100010001000100014D
:1003E000000100010000005400220200000602A9E2
:1003F00000AC005500610060005F00A800AE005630
:10040000005E005D005C00AA00AB0057005B005A74
:10041000005900670037006200427E0100010001C0
:10042000000100010001000100010001003A003B51
:10043000003C003D003E0001003F00400041004202
:10044000004300010044004500680069006A0001A3
:100450000001000100010001000100010001000194
:10046000000100010001004B004A000000520000A2
:100470000000004E004D004F0051005000000000F1
:10048000004C00000000000000000001000100011D
:100490000001000100010001000000000000000058
:1004A00000000001000000000000000000207801B2
:1004B0000023782578277829782178010024782668
:1004C0007828782A7800000100010001000100016D
:1004D000000100000000000000000000000000001B
:1004E0000000000000000000000000007C00000090
:1004F0000000000000000000000000AB00AE00ACF7
:1005000000000001000100010001000100010022C3
:1005100023252628292A2C2D2F3032333536383AF8
:100520003B3D3E4042434547494A4C4E505153554E
:1005300057595A5C5E6062646668696B6D6F71736F
:100540007577797B7D7F81838587898A8C8E909270
:100550009496989A9C9E9FA1A3A5A7A8AAACAEAF7B
:10056000B1B3B4B6B8B9BBBCBEBFC1C2C3C5C6C7C0
:10057000C9CACBCCCDCED0D1D2D2D3D4D5D6D7D771
:10058000D8D9D9DADADBDBDBDCDCDCDCDCDDDDDDB9
:10059000DDDCDCDCDCDCDBDBDBDADAD9D9D8D7D7B5
:1005A000D6D5D4D3D2D2D1D0CECDCCCBCAC9C7C662
:1005B000C5C3C2C1BFBEBCBBB9B8B6B4B3B1AFAEA0
:1005C000ACAAA8A7A5A3A19F9E9C9A989694929046
:1005D0008E8C8A89878583817F7D7B79777573711E
:1005E0006F6D6B6968666462605E5C5A59575553FB
:1005F00051504E4C4A4947454342403E3D3B3A38B4
:1006000036353332302F2D2C2A2928262523220750
:10061000087F0807003E6B4F6B3E00C194B094C149
:10062000001C3E7C3E1C00183C7E3C18001C577D84
:10063000571C001C5E7F5E1C0000183C180000FF69
:10064000E7C3E7FF00001824180000FFE7DBE7FF1F
:100650000030483A060E00262979292600407F05F9
:10066000050700407F05253F005A3CE73C5A007FC4
:100670003E1C1C0800081C1C3E7F0014227F221414
:10068000005F5F005F5F0006097F017F00006689F1
:10069000956A0060606060600094A2FFA294000808
:1006A000047E04080010207E20100008082A1C0880
:1006B00000081C2A0808001E10101010000C1E0C48
:1006C0001E0C0030383E383000060E3E0E0600008C
:1006D000000000000000005F0000000007000700AD
:1006E00000147F147F1400242A7F2A120023130889
:1006F00064620036495620500000080703000000DD
:100700001C224100000041221C00002A1C7F1C2AE0
:100710000008083E08080000807030000008080843
:100720000808000000606000002010080402003E7D
:100730005149453E0000427F400000724949494608
:10074000002141494D33001814127F100027454500
:100750004539003C4A494931004121110907003619
:100760004949493600464949291E00000014000045
:10077000000040340000000008142241001414144A
:100780001414000041221408000201590906003E19
:10079000415D594E007C1211127C007F4949493657
:1007A000003E41414122007F4141413E007F494995
:1007B0004941007F09090901003E41415173007F11
:1007C0000808087F0000417F4100002040413F01B0
:1007D000007F08142241007F40404040007F021CFF
:1007E000027F007F0408107F003E4141413E007FB0
:1007F00009090906003E4151215E007F0919294679
:100800000026494949320003017F0103003F40406F
:10081000403F001F2040201F003F4038403F006302
:1008200014081463000304780403006159494D431C
:1008300000007F41414100020408102000004141B6
:10084000417F00040201020400404040404000009B
:1008500003070800002054547840007F284444389F
:1008600000384444442800384444287F0038545415
:1008700054180000087E09020018A4A49C78007F88
:10088000080404780000447D4000002040403D0002
:10089000007F102844000000417F4000007C047865
:1008A0000478007C0804047800384444443800FC90
:1008B000182424180018242418FC007C08040408B8
:1008C0000048545454240004043F4424003C404055
:1008D000207C001C2040201C003C4030403C004458
:1008E00028102844004C9090907C004464544C4460
:1008F000000008364100000000770000000041368B
:100900000800000201020402003C2623263C0000ED
:10091000000000000000008080E0F0F0FC70FCF0BF
:100920007CF0FC70FCF0F0E0808000000000000033
:100930000000008080800000008080000000000037
:100940008080008080000000808000000000008027
:100950008080808000808000000000000000000097
:100960000000000000000000000000000000000087
:100970000000000000000000000000000000000077
:100980000000000000000000000000000000C0F0B7
:10099000F8FC3E1E06010000007F4141417F007FC0
:1009A0004141417F000080C0E07E5B4F5BFEC000A4
:1009B00000C000DCD7DEDEDED7DC00C000000000B7
:1009C0000000000000000000000000000000000027
:1009D00000000000000000AAAAFFFFFFFFE0DFDF29
:1009E00000DFDFE0FFFFFFFFAAAA00000000000019
:1009F000003E7FC1C1C17F3E00FFFF0F3C783C0F2E
:100A0000FFFF00FFFF1C3E77E3C10000000000FF76
:100A1000FF19191900FDFD00FEFC060600FEFC068C
:100A200006FCFC0606FEFC001E7CE0780C78E07CF0
:100A30001E0064F692927EFC00FEFC0606003C7EE0
:100A4000D2D2DE4C00000000000000000000030FC6
:100A50001F3F3C7870600000007F4141417F007F74
:100A60004141417F00307B7F7830202030787F3BD0
:100A70000003000F7F0F0F0F7F0F00030000000027
:100A80000000000000000000000000000000000066
:100A90000000000000000000000307071F071F07F9
:100AA0001F071F071F0707030000000000000000CA
:100AB0000000000000010302000000000000000030
:100AC0000000000000000000000000000000000026
:100AD0000000000000000000000000000000000016
:100AE0000000000000000000000000000000000006
:100AF00000000000000000000000000000000000F6
:100B000000000000000000000000000000000000E5
:100B100000000000000000000000000000000000D5
:100B200000000000000000000000000000000000C5
:100B300000000000000000000000000000000000B5
:100B400000000000000000000000000000000000A5
:100B5000AF00AE05010902A10185020901A100054E
:100B6000091901290815002501950875018102055B
:100B700001093009311581257F9502750881060923
:100B8000381581257F950175088106050C0A380204
:100B90001581257F950175088106C0C00501098072
:100BA000A101850319012AB700150126B700950197
:100BB00075108100C0050C0901A101850419012AE5
:100BC000A002150126A002950175108100C0050143
:100BD0000906A1018506050719E029E71500250189
:100BE0009508750181020507190029EF15002501F7
:100BF00095F0750181020508190129059505750112
:100C00009102950175039101C005010906A1010535
:100C10000719E029E715002501950875018102955E
:100C200001750881010507190029FF150026FF003D
:100C3000950675088100050819012905150025018B
:100C4000950575019102950175039101C009023B5B
:100C500000020100A0FA09040000010301010009DB
:100C60002111010001224400070581030800010948
:100C7000040100010300000009211101000122B656
:100C80000007058203200001120100020000000895
:100C900032FC87020100010200010C0353006F00C7
:100CA00066006C00650000001A034A006F007300C4
:100CB000650066004100640061006D00630069002A
:100CC0006B0000000403090400010101010101019E
:100CD00001010202020202020202020303030303F1
:100CE00003030304040404040404050505050506C0
:100CF000060606060707070707080808080909097E
:100D0000090A0A0A0B0B0B0C0C0C0D0D0D0E0E0E26
:100D10000F0F0F10101111111212131314141515B7
:100D200016161717181819191A1A1B1B1C1D1D1E29
:100D30001E1F20202122222324242526262728297D
:100D4000292A2B2C2D2D2E2F3031323233343536AB
:100D50003738393A3B3C3D3E3F40414243444546AB
:100D60004748494A4C4D4E4F505153545556585987
:100D70005A5B5D5E5F616264656668696B6C6D6F2E
:100D80007072737577787A7B7D7E808283858788A1
:100D90008A8C8E8F91939596989A9C9EA0A2A3A5DB
:100DA000A7A9ABADAFB1B3B5B7BABCBEC0C2C4C6DC
:100DB000C9CBCDCFD1D4D6D8DBDDDFE2E4E7E9EB98
:100DC000EEF0F3F5F8FAFDFF11241FBECFEFDAE0E5
:100DD000DEBFCDBF11E0A0E0B1E0E4E9F9E602C07A
:100DE00005900D92AC3EB107D9F726E0ACEEB1E02C
:100DF00001C01D92A93AB207E1F703D00C94C834A0
:100E0000FFC8AFE0B0E0E7E0F7E00C947C3385B7D3
:100E1000806885BF85B7806885BF84B7877F84BFBA
:100E20000FB6F894A8958091600088618093600067
:100E3000109260000FBE90E080E80FB6F8948093A7
:100E40006100909361000FBE81E080937C0182E09D
:100E50009FE19093ED018093EC010E94DD140E94CC
:100E600050158091E20084608093E2007894809134
:100E700095068823A1F01091E9001F709091EC0075
:100E8000892F817090FD80E8182B1092E9008091E5
:100E9000E80083FD0E94BC281F701093E90082E0E7
:100EA00084BD93E095BD9AEF97BD80936E0010923C
:100EB000EE011092EF011092F0011092F101809179
:100EC000D80080618093D8002AE12A95F1F700C00C
:100ED0008091D900182F117080FD04C00E94DD148C
:100EE000109295061093A6021093A7021093080182
:100EF000112341F01092720184E2809373010E94E9
:100F0000113205C084E2809372018093730188E0FE
:100F1000EBEAF5E0DF011D928A95E9F78091A702DF
:100F200091E0282F29272093290290932C028111E8
:100F300006C084EF8093770185EF8093780160E0AD
:100F400080E00E94722561E080E00E947225EFE857
:100F5000F1E03197F1F700C0000010E080912C0221
:100F6000181790F460E0812F0E945625082F61E049
:100F7000812F0E945625E12FF0E0E65DFD4F880F9E
:100F8000082B00831F5FEACF8091A702882311F00E
:100F900090E001C095E09093FD0185E0891B80936E
:100FA000FC010DE711E032E8E32E31E0F32ED80129
:100FB0008D918D018F3F11F00E94CF20E016F10638
:100FC000B1F702E811E0F80181918F018F3F11F034
:100FD0000E94CF20F1E008381F07A9F78AE0E3E07C
:100FE000F2E0DF01282F1D922A95E9F7E2EFF1E008
:100FF000DF011D928A95E9F780E090E00E94C933F5
:10100000833E9E4F61F163EE7EEF80E090E00E94B0
:10101000E83360E082E090E00E94CE3381E090E02F
:101020009093FF018093FE0161E083E090E00E94D5
:10103000CE3360E074E184E090E00E94E8330E94E7
:101040005D2D40E050E0BA018FE090E00E94E03377
:1010500040E050E0BA0183E190E00E94E03382E09A
:1010600090E00E94BC338093170284E090E00E94DD
:10107000C9339093AF028093AE020E946B22EFEFD0
:10108000F6E721E0E150F0402040E1F700C0000029
:101090000E946B228091030280FF08C06FEF7FEFF8
:1010A00080E090E00E94E8330E94EB1683E090E03D
:1010B0000E94BC3390E00E94721E80919F06909126
:1010C000A0060E94E52C8091A602811183E0809306
:1010D0004E0280FD02C080E801C080E280939A0346
:1010E0000E94B5306BE070E08BE092E00E941D261C
:1010F000882309F443C080914E0265E070E081FDD1
:101100003AC086E092E00E941D268823B9F16DE086
:1011100070E084EF91E00E941D26882379F10E94FF
:101120002217DC01CB01805A9541AF4FBF4F80930E
:10113000A5059093A605A093A705B093A805EDE992
:10114000F3E080E092E0DF019C011D9221503040ED
:10115000E1F7F093A405E093A3058FEF9FEF909341
:101160009C0380939B0381E08093AA058093A9054B
:1011700010924F0203C081E092E0C5CF809100023F
:1011800081113DC081EA96E00E947A288091970300
:101190008360809397038091A1068C7F31F40E9435
:1011A0005D2D81EA96E00E947A288091A106282F81
:1011B0002695269530E02115310519F48370846059
:1011C00005C02031310524F083708C638093A10623
:1011D0008091A406893718F088E78093A4060E94BE
:1011E00068260E944B248091A10680FF05C060E024
:1011F000869586950E949E2E81E0809300028091C4
:10120000A602811102C00E94143286E192E09093FE
:101210008E0380938D0361E08AE00E949E2E89E018
:1012200091E09093AB028093AA0222242394312C64
:10123000FF24F39480919506853009F088C010E46E
:1012400000E192E1E92E80919506853009F069C0B0
:1012500080919506843009F434C00E9468268091FC
:101260000202811109C0F09202028091A1068170F0
:10127000809301020E94902E0E942A261092B002B2
:1012800068E170E00FB6F894A895609360000FBE17
:101290001093600083B7817F846083BF83B78160D0
:1012A00083BF7894889583B78E7F83BF0FB6F894F9
:1012B000A895809160008861809360001092600022
:1012C0000FBE0E946B22E3E0F2E0ADE0B2E080E00E
:1012D00021912D9391E0211101C090E0892B72E0C2
:1012E000ED30F707A9F7882309F4ADCF8091940674
:1012F000882309F4A8CF09BDE9BC09B400FEFDCFDD
:101300008091D8008F7D8093D8008091E00082602A
:101310008093E0008091E00081FDFCCF0E94771E69
:1013200092CF0E94771E0E941F1810920202809195
:101330000102882351F08091A10681608093A1066B
:1013400060E0869586950E949E2E0E946F260E94E0
:101350006B2208E1A02E02E0B02E83E0882E82E00E
:10136000982E22E232E0D401F50191918D918927E6
:101370002E173F0719F08823C1F306C0811104C05E
:101380000E94DC1EE12C62C08091A6028D871DE0C8
:10139000C12E12E0D12EE12CD4015D904D01F5015A
:1013A0006080652409F444C000E010E07724739461
:1013B000872D8621A9F1472C4520FD85FF2319F1B2
:1013C000D6018C91282F30E0C101002E02C0880F79
:1013D000991F0A94E2F782239323892BA1F40F83A8
:1013E000E8860E942E179A878987B1E0BB8791E033
:1013F000411001C090E09C874F81588569857A85AE
:101400008B850E94072C41100BC0C101002E01C02A
:10141000880F0A94EAF78095F601908189238083EA
:10142000770C0F5F1F4F0630110511F6D5015C9246
:10143000E394BFEFAB1ABB0AEFEFCE1ADE0AFAE075
:10144000EF12AACF0E94E620EE24E3948091A60238
:10145000882399F18091A4029091A502892B69F1CA
:1014600000912202109123020E942E17801B910BE3
:10147000893C910510F18091A4029091A5029C01F4
:1014800033272230310548F44AE0429F8001439FD0
:10149000100D11240D5E1E4F02C000E010E060E050
:1014A0000E947D18009749F0DC0115962C9122FDD1
:1014B00004C0BC01C8010E944F1880919603882384
:1014C00009F48EC080919503E091A106E695E6951A
:1014D000E81BE0939103823059F4F0E0EA5DFD4FA0
:1014E000E4910E2F10E0B6E3CB2EB5E2DB2E2AC03E
:1014F000863061F4E695F0E0ED5DFD4FE4910E2F4E
:1015000010E0A8EFCA2EA7E2DA2E1CC08C3059F4E6
:10151000F0E0E05EFD4FE4910E2F10E0FDE7CF2EEE
:10152000F7E2DF2E0FC08F3039F000ED17E0EDE469
:10153000CE2EE4E2DE2E06C008E210E070E0C72EF8
:1015400077E2D72E80919203882361F01092920364
:101550000E9462229093900380938F0310929403D1
:10156000109293030E946222E0918F03F091900306
:101570009C012E1B3F0B2F3F3F4790F520912602E9
:101580002223B1F0109226022091240230912502EC
:10159000821B930B8F3F9F4758F4205D3A4830934E
:1015A00025022093240280919703886080939703FB
:1015B000A0909303B09094030E0F1F1F10939003FD
:1015C00000938F038FE893E0F601099580919303D0
:1015D00090919403892B21F4AB2811F0F09226020C
:1015E00080918C03882369F010928C03809196037C
:1015F000811107C08091A10660E0869586950E94C2
:101600009E2E8091A602882321F00E94B825C82E24
:1016100001C0C12C80912D02882351F010922D021F
:101620008091AD058093AE058091AB058093AC05AC
:10163000D12C80912C02D81608F042C061E08D2D8B
:101640000E945625182F60E08D2D0E945625E12F0F
:10165000EE0F8E2B0D2D10E0D801A65DBD4FEC9145
:101660002E2F237030E0482F50E02417350731F13A
:10167000EE0FEE0FE82BEC93809129028D0DEF70A9
:10168000F0E0E857FE4F095D1D4FB080D8019C91F6
:10169000B90EBC92B1E0BB1514F461E004C0EFEFE9
:1016A000BE161CF460E00E9493258B2DBB0C990B99
:1016B00062E070E00E940834D8018C93D394B9CFD3
:1016C0008091A602882319F00E94B825C82ACC2050
:1016D00021F00E94E620EE24E3948091AA0588235D
:1016E00009F4D3C100915002109151020E942E17AB
:1016F000801B910BC29708F4BFC00E942E179093D5
:101700005102809350028DE993E09093A405809359
:10171000A3058091A60260E0882309F445C08AE60B
:1017200092E00E94092660E082E392E00E9409268E
:1017300060E080E392E00E94092660E08AE292E0A5
:101740000E94092660E088E692E00E94092660E097
:1017500085E692E00E94092660E08FE592E00E9413
:101760001A2680919F069091A0060E94B82B813086
:1017700089F040F0823051F0833081F460E088E4F9
:1017800092E014C060E089E592E010C060E083E57B
:1017900092E00CC060E08DE492E008C060E082E47A
:1017A00092E00E941A2604C08CE692E00E9409266C
:1017B0008091A60260E0882309F45AC08CEE92E082
:1017C0000E94092680919F069091A0060E94B82B46
:1017D000882331F0813051F460E082EE92E003C062
:1017E00060E087EE92E00E941A2605C060E08DED71
:1017F00092E00E94092660E08AED92E00E940926AC
:1018000060E084ED92E00E941A2680919F069091FC
:10181000A0060E94B82B823069F040F0833081F03E
:10182000843091F460E08BEB92E007C060E08EECD6
:1018300092E003C060E088EC92E00E94092609C0B3
:1018400060E082EC92E0F9CF60E085EB92E00E94EC
:101850001A2660E082EB92E00E9409260E941F187F
:1018600081FB662760F98CEA92E00E941A2604C088
:101870008FEE92E00E94092680919B0390919C0339
:10188000892B31F48091A905882309F4FEC0E6C0B4
:101890008091AA058823B1F380914F028111F2CF84
:1018A0000E94432620919B0330919C032115310512
:1018B00049F380E0482E512C6101082E02C0CC0C67
:1018C000DD1C0A94E2F7A60142235323452B11F4B1
:1018D0008F5FF0CF90914E02920165E0220F331F8F
:1018E0006A95E1F790FF13C055E0369527955A9514
:1018F000E1F7220F220F220F2093290110922C01D1
:10190000295F20932A0183E080932D0111C0220FCB
:10191000232F221F330B31958295880F8076809379
:10192000290120932C01815E80932A0120932D01AF
:1019300024E630E047E050E067E271E088E70E948B
:10194000EA30892B09F09ECF80914E0280FF65C05E
:1019500080E2EEE2F2E0DF011D928A95E9F735E0E0
:10196000440C551C3A95E1F7ECE9F1E0FF87EE876E
:1019700048E951E0AE85BF858D91BF87AE87FA01FA
:101980009191AF019201290F311DB90163567C4F2E
:101990003B0190E0825D9D4FFC0107E09F01281B09
:1019A000390BA22C01C0AA0C2A95EAF7B301B12C7D
:1019B000DB011D91BD011A21202F2B192770922EBA
:1019C000022E000C330BB12F01C0BB0F9A94EAF723
:1019D0009B2E3195219531092770332701C016952B
:1019E0002A95EAF7912A1081912A9082B39428E0EF
:1019F000B212DECF015031960F3F81F660EA71E0FE
:101A00008E859F856817790709F0B4CF04E610E04A
:101A100020E230E04EE252E00DC0C20125E0880F26
:101A2000991F2A95E1F7AC0143565C4F04E610E09C
:101A300020E230E060E488E70E947731892B09F0EA
:101A400021CFC094D09480919B0390919C03C82295
:101A5000D922D0929C03C0929B0314CF0E942217DC
:101A60000091A5051091A6052091A7053091A80524
:101A7000DC01CB01801B910BA20BB30B8F3F9F4F5F
:101A8000AF4FBF4710F40E942A26E1100E94432660
:101A900086E0E4E8F2E0DE01119601900D928A956D
:101AA000E1F7A090850200918602E09087021091F4
:101AB0008802B090890210928602109287021092DA
:101AC000880210928902011103C0EE2009F44DC072
:101AD000C0908202D09083020E942E179C012C1984
:101AE0003D0990917D02992309F4E5C02531310526
:101AF000E0F19F3F19F09F5F90937D02002361F01A
:101B00000E947919101614F491E001C09FEF899F8B
:101B1000802D112480938602EE2061F00E947919B5
:101B20001E1414F09FEF01C091E0899F802D1124B5
:101B300080938702809186028823B9F0D090870233
:101B4000DD2099F00E949919882319F0809386026C
:101B500002C0F09286028D2D0E949919882319F0F7
:101B60008093870202C0F0928702111103C0BB204C
:101B700009F44DC0C0908002D09081020E942E17BF
:101B80009C012C193D0990917E02992309F498C07B
:101B900021353105E0F19F3F19F09F5F90937E0260
:101BA000112361F00E945719111614F491E001C03D
:101BB0009FEF899F802D112480938802BB2061F0C4
:101BC0000E9457191B1414F09FEF01C091E0899FE8
:101BD000802D112480938902809188028823B9F096
:101BE000D0908902DD2099F00E949919882319F07C
:101BF0008093880202C0F09288028D2D0E9499196C
:101C0000882319F08093890202C0F09289028091A2
:101C10008502A8121AC080918602882311F0081349
:101C200014C080918702882311F0E8120EC08091C1
:101C30008902882311F08B1108C0909188029923A2
:101C400031F081E0191304C002C081E001C080E0DE
:101C500080FD15C08091860281110FC0809187029E
:101C600081110BC080918802811107C081E09091A1
:101C70008902911103C080E001C081E080FD0E94D3
:101C80002C19AA820B83EC821D83BE8286E0FE01A2
:101C90003196A4E8B2E001900D928A95E1F70E9496
:101CA0001F1890915202891709F4C4CA80935202F6
:101CB0000E942217BDCA2B30310508F01CCF55CF2A
:101CC0002B30310508F069CFA2CF8F929F92AF924F
:101CD000BF92EF92FF920F931F93CF93DF93FC017C
:101CE0002481222309F458C57C0161E00E94DE2B87
:101CF000EC01F7018581882379F18091A40290910C
:101D0000A502009749F1C817D90731F19C01332783
:101D10002230310548F44AE0429F8001439F100D74
:101D200011240D5E1E4F02C000E010E060E00E9432
:101D30007D18FC01892B81F0858184608583D183A6
:101D4000C083BF01C8010E944F181092A20261E037
:101D5000C7010E94DE2BEC01C134FEE7DF07E1F092
:101D600028F4C0343EE7D30751F038C0C2348EE7C0
:101D7000D807F1F0C3349EE7D90721F12FC0F7014E
:101D80008581882309F4FDC161E083E090E00E9431
:101D9000CE3381E090E0AFC0F7018581882311F058
:101DA00081E00BC081E00E94281E0E946B28E9C1DF
:101DB000F7018581882321F082E00E94641EF5CF1F
:101DC00082E0F1CFF7018581882321F083E00E9432
:101DD000641ED7C183E00E94281ED3C1CE0197554F
:101DE0008F3F910511F008F048C04E019924F2E0B0
:101DF0008F16910408F0C5C1F70165818C2F0E94F0
:101E00007D188C01892B09F4BCC1F7019581F8017B
:101E1000858190FB80F98583F7018581882309F40A
:101E200070C00E942E179093230280932202F80123
:101E300082818F5F82839091A2028091A302892B7D
:101E400083838091180384838AE0889DF001899DB3
:101E5000F00D1124ED5EFE4F40815181608571854A
:101E6000C8010E943218F801858181FF47C090E0C7
:101E700080E09093A4028093A5024E01FE01E851F8
:101E8000FC47E730F10508F43EC1F701958199233D
:101E900009F474C410928C029E013057233231052C
:101EA00008F456C0E091A302C631FCE7DF0709F44D
:101EB0005BC18E2F8272F401E052F847EB30F105DE
:101EC00008F471C19E01205E32452032310508F0D0
:101ED000BEC19111BEC1CF7181E090E09C0102C0F2
:101EE000220F331FCA95E2F7E901622F83E090E0E9
:101EF0000E94CE33CE010E94721E43C19C2F8D2FB3
:101F0000B8CF2AE0289DC001299D900D11249C0185
:101F10002D5E3E4F5901F9014681578160857185DB
:101F2000C8010E943218F801858181FFA6CFB8014F
:101F3000C5010E9438188091A4029091A502C8178B
:101F4000D90709F09ACF1092A5021092A40295CF5A
:101F500084E090E00E94C9339093AF028093AE0278
:101F6000F401E150F047E232F10520F4EA5AFF4F64
:101F70000C943D348091AE028160ACC08091AF0280
:101F80008860B4C08091AE028260A4C08091AE022D
:101F900020C08091AE0288609DC08091AF021EC0BB
:101FA0008091AF028260A2C08091AE02806192C037
:101FB0008091AE0280628EC08091AE0280648AC041
:101FC0000E94771E8091AE02806884C08091AE022C
:101FD000886084607FC08091AF028260816086C02B
:101FE0008091AE028E7F76C08091AF02877F7EC0E7
:101FF0008091AE028D7F6EC08091AE0220C0809134
:10200000AE02877F67C08091AF021EC08091AF0291
:102010008D7F6CC08091AE028F7E5CC08091AE02DD
:102020008F7D58C08091AE028F7B54C00E94771E76
:102030008091AE028F774EC08091AE02877F8B7FFA
:1020400049C08091AF028D7F8E7F50C08091AE02DB
:1020500082FB222720F991E0922790FB82F990FBE6
:1020600083F938C08091AF02982F909591708E7F40
:10207000892B90FB81F93AC08091AE0286FB222722
:1020800020F991E0922790FB86F924C00E94771EE8
:102090008091AE0287FB222720F991E0922790FBE6
:1020A00087F918C061E001C060E08EE090E00E9416
:1020B000CE331EC08091AE0284FB222720F991E02E
:1020C000922790FB84F906C08091AE02982F9095DC
:1020D00090FB80F98093AE020BC08091AF0283FB2E
:1020E000222720F991E0922790FB83F98093AF0299
:1020F0006091AE027091AF0284E090E00E94E833FC
:102100000E94771E3EC0E858FF4F0C943D3406E213
:1021100021EE41EE6AE17CE723C007E225EE45EEC1
:102120006BE17CE71DC006E221EE40EE68E17CE752
:1021300017C007E225EE44EE69E17CE711C006E234
:1021400021EE42EE6CE17CE70BC007E225EE46EEA5
:102150006DE17CE705C008E221E045EE6EE17CE739
:10216000C7010E94C7180DC08E2F8A7A91E009F42A
:1021700090E0909353028111FFC289E2DBD60E9466
:10218000281B80911703877009F406C3F701858126
:10219000882309F401C38091AF0282FFFDC282E06F
:1021A0000E94381EF9C2E158FF4F0C943D348091D3
:1021B000A10680FF11C08E7F8093A10681EA96E080
:1021C0000E944A280E94682680919703816080932C
:1021D00097030E948A26D5CF81608093A10661E093
:1021E000869586950E949E2ECCCF882329F00E944A
:1021F000D72EC7CF8823D9F30E94E02EC2CF8823E1
:1022000029F00E94802EBDCF8823D9F30E94882E0A
:10221000B8CF882329F00E946A2EB3CF8823D9F340
:102220000E94752EAECF882329F00E94542EA9CF8C
:102230008823D9F30E945F2EA4CF882329F00E941F
:10224000492D9FCF8823D9F30E94532D9ACF9923EC
:10225000E1F0CB353CE7D30791F0CC358CE7D807DC
:1022600031F0CA35ECE7DE0771F481E009C08091F6
:10227000AF0282FB882780F991E0892701C080E0C6
:102280000E944E1E7ECF91115EC2F701C081D181A6
:10229000992349F0CE010E94DF1B182F682FCE0131
:1022A0000E94ED1D04C0CE010E94BA1D182FBE0170
:1022B000812F0E9445220E94041AD82FC92F982EE0
:1022C000F7011581068102950F70809117038770C1
:1022D00001F11123F1F0892F807F803469F080E2D1
:1022E0008D0F8830B0F0892F807E803229F4F1E0A4
:1022F000FD1778F4002369F08091AF0282FF09C0D6
:1023000082E00E94381E809117038770BB24B3942B
:102310008111B12CAC2EA2948FE0A8228A2D90E0DE
:102320008C30910508F0EEC1FC01E657FF4F0C948C
:102330003D348C2F807FCF70882311F0C295C07FF1
:102340001123B9F0CC2309F4C6C180E28D0F883087
:1023500010F0911006C09091A302C92BC093A30264
:1023600005C09091A202C92BC093A2020E94281B13
:10237000B2C18D2F0E94C12FCC2309F4C3C1D05EFE
:102380008C2FD83068F1992059F10E941A1B2AC06D
:102390008C2F807FCF70803211F0C295C07F992042
:1023A00029F021E0921609F44CC055C08091AF028B
:1023B00082FD1BC0112369F0CC2339F09091A30258
:1023C000C92BC093A3020E94281B80E00E94F02F1B
:1023D00099C180E00E94C12FCC2309F493C18C2FB6
:1023E0000E94211B0E94281B8DC1112381F0002314
:1023F000B1F1013009F086C1909118038C2F892327
:10240000C81709F47FC1C92BC09318037BC1011100
:1024100079C18C2F0E94B11E809118039C2F9823A4
:1024200029F09C2F909589238093180320915402C2
:102430008C2F822309F466C1C0952C23209354026B
:1024400061C1112321F0063008F05CC108C00530DD
:1024500008F058C115C0112331F001113CC18C2F77
:102460000E94B61E4FC1002359F0D93309F041C173
:102470003FEF87EE93E0315080409040E1F73DC15F
:102480008C2F0E94B11E3EC18C2F8695869583703D
:1024900019F0813059F036C1112321F08D2F9C2F76
:1024A000937002C080E090E0A3D532C1112321F0E7
:1024B0008D2F9C2F937002C080E090E072D528C1D0
:1024C000612F8D2F0E94EA2E23C18C2F837009F07B
:1024D00041C011111BC12D2F229526952770220F67
:1024E000220F8D2F8F7090E0022E02C0880F991F4F
:1024F0000A94E2F7D4FF0BC04FE050E002C0440F53
:10250000551F2A95E2F79A012095309502C020E0E8
:1025100030E0C695C695C370C23099F068F440911A
:10252000FE015091FF01C13029F0822B932B8423AF
:10253000952304C0842B952B822B932B0E94721E13
:10254000E5C0822B932B2091FE013091FF01822761
:102550009327F4CF112319F08C2F817001C0869539
:10256000882309F4D3C02D2F229526952770220F9A
:10257000220F8D2F8F7090E0022E02C0880F991FBE
:102580000A94E2F7D4FF0BC04FE050E002C0440FC2
:10259000551F2A95E2F79A012095309502C020E058
:1025A00030E0C695C695C370C23079F0B8F440915A
:1025B0009F065091A006C13029F0822B932B8423D3
:1025C00095230EC0842B952B09C0822B932B209131
:1025D0009F063091A0068227932702C0822B932B5F
:1025E0000E94211E93C0CF70112339F08C2F0E94BE
:1025F000641E8D2F0E94B61E89C08D2F0E94B11EB1
:102600008C2F0E94281E82C08D2FF2EF9F1689F119
:10261000F91538F020EF921659F031EF931621F1A9
:1026200056C093EF991661F1E4EF9E16C9F04FC0C2
:10263000112391F0053008F065C0CF7181E090E082
:1026400002C0880F991FCA95E2F720919F0630912A
:10265000A0068227932721C0063008F053C0EDCF93
:102660008091AF0282FD1CC0112329F08C2F8F7145
:1026700022C01123D9F38C2F8F710E94281E42C0D3
:10268000112349F0CF7181E090E002C0880F991FBB
:10269000CA95E2F702C080E090E00E94211E32C09D
:1026A000112361F08C2F8F71F8E08F9F900111241E
:1026B0002360209317030E94641E24C081E00E94BF
:1026C000381E0230F8F082E00E94381E1BC0112331
:1026D00021F0002359F28D2F79CE002361F2893346
:1026E00041F42FEF37EE83E0215030408040E1F796
:1026F00004C0EFE3FCE93197F1F700C000008D2F33
:102700000E94C12F88EF8A0D843010F498D416C02F
:10271000BB20A1F08091170380FD10C0F701158246
:102720008695869586950E94641EC701CEDA8091B3
:1027300017038695869586950E94281E60E0C7013E
:102740000E94DE2B29C0C130FCE7DF0791F0C330C7
:102750002CE7D20741F0C115DC4709F096CD0E9465
:10276000771E39D30ECD6FEF7FEF80E090E00E94AF
:10277000E8330E94922C05CD85E300CDC6312CE7CD
:10278000D20709F09FCB80915302811103C089E2E7
:10279000A3D3F5CC85E3FCCFDF91CF911F910F91AF
:1027A000FF90EF90BF90AF909F908F9008952091F1
:1027B000E4003091E50095E64091EC00842F8170B3
:1027C00040FF23C08091E80080FD1DC080919506E8
:1027D000882399F0853099F08091EB0085FD11C038
:1027E0004091E4005091E5002417350729F39150FA
:1027F00011F09A01E1CF84E0089582E0089583E02A
:10280000089581E0089580E008954091E80042FF36
:10281000DDCF089580917A0108950F931F93CF9390
:10282000DF938B01EA0190919506943071F58F70DA
:102830008093E9008FEF9091E800815095FD06C0EC
:1028400095ED9A95F1F700008111F5CF8091E800A0
:1028500085FF1BC0ACDF882361F08091E8008E7794
:102860008093E80012C0F80181918F018093F100FC
:102870002197209791F38091E80085FDF4CF809116
:10288000E8008E778093E800E5CFDF91CF911F912C
:102890000F91089543E050E0BC0182E0BECF46E0D6
:1028A00050E0BC0182E0B9CF40E250E0BC0182E0E0
:1028B000B4CFCF93DF93EC0148E050E0BC0181E05E
:1028C000ACDF88E0FE01ABE8B6E001900D928A959E
:1028D000E1F7DF91CF910895FC018281813051F4BD
:1028E0008FE39CE90197F1F700C00000FB018081B4
:1028F000918105C0823029F4FB01828193810C947F
:102900009F2C0895FB01808191810C94B62CCF936C
:10291000DF93FC012281223049F4FB01EC0182812A
:1029200093810E94B62C8D8182608D83DF91CF913F
:1029300008951F920F920FB60F9211242F933F9379
:102940004F935F936F937F938F939F93AF93BF93B7
:10295000CF93DF93EF93FF93C091E900CF70809105
:10296000EC00D82FD17080FDD0E81092E900809162
:10297000F000877F8093F00078940E94BC2810922A
:10298000E9008091F00088608093F000CD2BCF703B
:10299000C093E900FF91EF91DF91CF91BF91AF918B
:1029A0009F918F917F916F915F914F913F912F9167
:1029B0000F900FBE0F901F901895E8EDF0E080810A
:1029C0008E7F80831092E2001092DA001092E10074
:1029D000A0EEB0E08C9181608C9380818F778083B2
:1029E00019BCA7EDB0E08C918E7F8C9380818F7E97
:1029F00080831092B50208958091970687FF11C0D9
:102A00008091E80082FD05C0809195068111F8CF84
:102A100011C08091E8008B770BC0809195068823C8
:102A200049F08091E80080FFF8CF8091E8008E7730
:102A30008093E8000895982F973068F59093E90007
:102A4000981739F07091EC002091ED005091F00052
:102A500003C0242F762F50E021FD02C09F5FECCFF2
:102A60003091EB003E7F3093EB003091ED003D7FE5
:102A70003093ED003091EB0031603093EB007093B8
:102A8000EC002093ED005093F0002091EE0027FD24
:102A9000E5CF80E008958F708093E90081E008958C
:102AA000A0E0B0E0E6E5F5E10C948633C8EDD0E0B7
:102AB00088818F7E8883E7EDF0E08081816080836C
:102AC00084E082BF81E08093B50288818E7F888315
:102AD00002EE10E0F80110821092DA0081EEC82EAA
:102AE000D12CF601108288818F7788838881806855
:102AF000888388818F7D888319BC109295061092F7
:102B00009606109294061092930690EEE92EF12C00
:102B1000F70180818B7F808388818160888342E098
:102B200060E080E088DFF60180818E7F8083F8019D
:102B3000808181608083808188608083F7018081CB
:102B40008E7F8083888180618883CDB7DEB7E8E09F
:102B50000C94A2331F920F920FB60F9211242F9351
:102B60003F934F935F936F937F938F939F93AF9315
:102B7000BF93EF93FF938091E10082FF09C08091A2
:102B8000E20082FF05C08091E1008B7F8093E1002D
:102B90008091DA0080FF28C08091D80080FF24C097
:102BA0008091DA008E7F8093DA008091D90080FFD7
:102BB00016C080E189BD82E189BD09B400FEFDCF68
:102BC00081E0809395068091B50281110DC0F5DEFC
:102BD00067DF8091E20084608093E20005C019BC49
:102BE000109295061092B5028091E10080FF1AC004
:102BF0008091E20080FF16C08091E2008E7F80937A
:102C0000E2008091E20080618093E2008091D80030
:102C100080628093D80019BC85E08093950683E09C
:102C200080937C018091E10084FF37C08091E200B5
:102C300084FF33C080E189BD82E189BD09B400FE13
:102C4000FDCF8091D8008F7D8093D8008091E100E6
:102C50008F7E8093E1008091E2008F7E8093E2007E
:102C60008091E20081608093E20080919606882343
:102C700011F084E007C08091E30087FD02C081E08D
:102C800001C083E08093950680919506843011F011
:102C900081E001C082E080937C018091E10083FFAC
:102CA0002BC08091E20083FF27C08091E100877FE5
:102CB0008093E10082E080939506109296068091C1
:102CC000E1008E7F8093E1008091E2008E7F80930F
:102CD000E2008091E20080618093E20042E060E0E7
:102CE00080E0A9DE8091F00088608093F00081E0B0
:102CF00080937C0180937B01FF91EF91BF91AF9115
:102D00009F918F917F916F915F914F913F912F9103
:102D10000F900FBE0F901F90189520919D06309137
:102D20009E062617370748F06115710539F4209182
:102D3000E8002E772093E80001C0B901FC0120E0F3
:102D40006115710579F1809195068823F1F185303F
:102D5000F1F18091E80083FD3CC08091E80082FDA4
:102D60002EC08091E80080FFEBCF2091F30080918E
:102D7000F20090E0922B6115710551F088309105B9
:102D800038F421912093F100615071090196F3CF3D
:102D900021E0089709F020E08091E8008E77809389
:102DA000E800CECF2111CFCF0AC0809195068823AD
:102DB00061F0853061F08091E80083FD0AC0809168
:102DC000E80082FFF2CF80E0089582E0089583E07A
:102DD000089581E0089587E797E79093010880932D
:102DE00000089AE088E10FB6F894A89580936000F7
:102DF0000FBE90936000FFCF78941F920F920FB692
:102E00000F9211248F939F93AF93BF938091B10240
:102E10009091B202A091B302B091B4020196A11DAB
:102E2000B11D8093B1029093B202A093B302B0930C
:102E3000B402BF91AF919F918F910F900FBE0F90F1
:102E40001F9018952FB7F8946091B1027091B2025B
:102E50008091B3029091B4022FBF08952FB7F894D8
:102E60008091B1029091B202A091B302B091B402EC
:102E70002FBF08951F920F920FB60F9211248F93B8
:102E80009F93AF93BF938091B002811113C0809143
:102E9000B1029091B202A091B302B091B4024196F6
:102EA000A11DB11D8093B1029093B202A093B30211
:102EB000B093B402BF91AF919F918F910F900FBECD
:102EC0000F901F901895CF93DF93EC01C7DF8C1BF9
:102ED0009D0BDF91CF91089590917B01913021F46A
:102EE0009091AE0297FD03C0E5E5F2E01DC0E82F2A
:102EF000E695E695E695EE31E0F4F0E0E35AFD4F15
:102F0000877021E030E0A90102C0440F551F8A9567
:102F1000E2F7CA01809592818923828308953196D0
:102F200052E0EB35F50729F092818913F8CF128230
:102F3000F6CF089590917B019130D1F49091AE023B
:102F400097FF16C0E82FE695E695E695EE3140F539
:102F5000F0E0E35AFD4F877021E030E0A90102C0A4
:102F6000440F551F8A95E2F7CA019281892B16C03A
:102F7000A7E5B2E0EFEF90E02D91821789F0EF3FE7
:102F800019F4211101C0E92F9F5F9630A9F7EF3F97
:102F900039F00E2E000CFF0BEB5AFD4F8283089583
:102FA0000895A3E0B0E0E7EDF7E10C948C332091B5
:102FB000AC023091AD0228173907B1F09093AD0201
:102FC0008093AC02E091AA02F091AB02309761F0DD
:102FD0000084F185E02D309739F024E029839B832C
:102FE0008A83CE01019609952396E2E00C94A833DA
:102FF000A3E0B0E0EEEFF7E10C948C332091A8024F
:103000003091A90228173907B1F09093A902809353
:10301000A802E091AA02F091AB02309761F000841F
:10302000F185E02D309739F023E029839B838A8353
:10303000CE01019609952396E2E00C94A833809185
:10304000A602882369F0E091AA02F091AB023097C2
:1030500039F00190F081E02D309711F00995089535
:1030600080E008954115510511F0FA010995089580
:10307000CF93DF93EB01FC0144815581608571851D
:10308000CE01F0DF8B81D6D28C81DBD2E1D287E01A
:10309000FE0111928A95E9F7DF91CF9108950F9380
:1030A0001F93CF93DF938C01EB018D8181FD16C0BF
:1030B00082608D839091A2028B81892B8093A202E2
:1030C0009091A3028C81892B8093A302C1D2F80135
:1030D0004281538160857185CE01C4DF1092A502C3
:1030E0001092A4028D8180FD03C0BE01C801C0DF23
:1030F000DF91CF911F910F910895823008F044C065
:10310000EDE8F2E040E050E097E0949F9001959F59
:10311000300D1124D901AE56BD4F7C9173FF07C00D
:103120007681871304C0C90183579D4F08954F5F6F
:103130005F4F37964330510541F7662329F190914F
:10314000920293FF0BC09091990293FF0AC0909155
:10315000A00293FD19C022E030E005C020E030E07D
:1031600002C021E030E097E0929FD001939FB00D24
:103170001124FD01E357FD4F8683AE56BD4F8C9160
:1031800088608C93CF01089580E090E00895EF92DD
:10319000FF920F931F93CF93DF93C42FD22FFC0185
:1031A00085818823A1F040938C0258DE90938B0296
:1031B00080938A0280E28C0F883008F048C0C77084
:1031C00081E001C0880FCA95EAF7D0D540C0809150
:1031D0008C0248132EC0E0908A02F0908B023EDEF3
:1031E0008E199F09883C910520F510E21D0FCD171F
:1031F000A9F080E28C0F883038F4C77081E001C0FC
:10320000880FCA95EAF7ADD51830F8F481E09D2F04
:10321000977001C0880F9A95EAF7A8D5802FAFD58F
:103220001830A8F4D77081E001C0880FDA95EAF76A
:103230000AC080E28C0F883050F4C77081E001C072
:10324000880FCA95EAF78DD502C0802F98D5CDB7E3
:10325000DEB7E6E00C94A43301DE20918602211152
:1032600004C020918702222321F09093830280934F
:10327000820220918802211104C020918902222318
:1032800021F09093810280938002E091AA02F09154
:10329000AB02309759F00680F781E02D309731F07E
:1032A00082E08093840284E892E0099508958091F9
:1032B0007F0280FD16C081FD16C082FD18C080917E
:1032C0007E02882391F0883290F428E0829FC0012A
:1032D000112468E270E00E940834862F672B29F0E1
:1032E00007C082E0089584E0089581E0089588E0B1
:1032F000089580917F0280FD14C081FD14C082FD7D
:1033000016C080917D02882381F08E3180F420E503
:10331000829FC00111246EE170E00E940834862F64
:10332000089584E1089588E2089588E0089580E58D
:103330000895282F35EB2303C001112497FF03C004
:103340008058910902C080589F4F892F0895FC0131
:10335000680F791F8FEF91E3E617F70771F021915E
:10336000822728E030E087FF03C0880F892701C04B
:10337000880F21503109B9F7EFCF08959091A3023A
:103380008091A202892B909118039923E1F0892B57
:1033900090917B01913041F49091AE0297FF04C06F
:1033A0009EE12FE532E003C096E027E532E0F90127
:1033B00020E0915028F031913323D9F32F5FF9CFDA
:1033C0002111109218030895209116039091DD02A7
:1033D00057E02917A9F030E0529FF001539FF00DFC
:1033E0001124E252FD4F7181761306C0708178136B
:1033F00003C07581741306C02F5F3F4F2770E9CF5C
:1034000080E0089581E008951F93CF93DF93A1D7C3
:10341000EC01C11580E5D807E8F5C11590E4D9079E
:1034200008F0A6C0C03ED10530F5CD3CD10508F06E
:1034300094C0C83AD10578F4C53AD10508F083C0E4
:10344000C130D10509F47CC008F4ECC0C430D1050A
:1034500008F0EBC0E7C0C33CD10508F0E3C0C85A90
:10346000D0E0CC0FDD1FCD55DE4F0990D881C02DA7
:10347000CE019464DBC0C11580E2D80708F0C7C054
:10348000C11591E0D90708F06BC0C83ED10508F41A
:10349000CCC0C8C0C03682E5D80728F5C03492E554
:1034A000D90708F076C0C03282E5D80708F069C0B5
:1034B000C11592E5D90708F47EC04C2F4695469574
:1034C00080E2489FA0011124C37021E030E0C901CF
:1034D00002C0880F991FCA95E2F7EA01C82BD92BC1
:1034E000CE019D68A3C0C03A82E5D807B8F48C2FFE
:1034F0008F71C03892E5D90708F078C08695869517
:1035000090E2899F90011124C37081E090E002C095
:10351000880F991FCA95E2F79A6865C0C03C82E59A
:10352000D80708F46AC0C03E92E5D90708F07AC00F
:10353000CF71DD27DC2FCC27CE01806F906A76C05B
:1035400081E090E073C0C55AD0E0C056DE4F88815C
:10355000C82FD0E0CE01906469C0CE01906566C0EE
:103560008D2FA6D6182FCE019927F3D61F7158C0DC
:10357000CE019927EED6CC27DF70D06A8C2B9D2BFD
:1035800055C0CF71D0E0DC2FCC27CE01816F906A7F
:103590004DC08C2F8F718695869590E2899F900102
:1035A0001124C37081E090E002C0880F991FCA9572
:1035B000E2F79C6818C08C2F8F717AD695E0D6956B
:1035C000C7959A95E1F7CF70D0E0DC2FCC27282F54
:1035D00030E084FF06C084E0220F331F8A95E1F7B4
:1035E0003327D069CE01822B932B20C090E0D82FB7
:1035F000CC27CE01846F906A19C08C2F8F7158D65A
:103600008F7190E0D82FCC27CE0190620FC08D2F04
:103610008F714ED6182FCE0199279BD61F719062BD
:10362000912B04C080E090E001C0CE01DF91CF91EA
:103630001F91089580959091A20289238093A20200
:10364000089580959091A30289238093A302089501
:1036500080917B01813061F58091AE0287FF28C0A7
:103660008DDE80935E0240E250E069E173E08DE51B
:1036700092E00E94B234892B09F43EC080E2EDE56D
:10368000F2E0A9E1B3E001900D928A95E1F7E091B3
:10369000AA02F091AB02309779F10480F581E02D18
:1036A000309751F186E080935D028DE592E023C072
:1036B00065DE8093550248E050E069E373E085E5FC
:1036C00092E00E94B234892BB9F088E0E5E5F2E09F
:1036D000A9E3B3E001900D928A95E1F7E091AA0287
:1036E000F091AB02309741F00280F381E02D3097EA
:1036F00019F085E592E0099508958091160390915F
:10370000DD02891719F08F5F8770FBCF0895CF9383
:10371000DF938091DC0282958F7009F04DC080911B
:10372000DB02882309F448C0809116034091DD0232
:103730005091D7026091D602C091D802D091D9029F
:1037400077E08417C9F190E0789FF001799FF00D40
:103750001124DF01A252BD4F14962C9114972223FD
:1037600041F111962C911197251323C02C9126130A
:1037700020C015962C91159721111BC012962D91E2
:103780003C9113972C1B3D0B283C310590F4809104
:10379000DC028F7080618093DC02EC51FD4F8081F0
:1037A0008F708061808386ED92E00E94650EA5DFB8
:1037B00003C001968770C5CFDF91CF910895A0E037
:1037C000B0E0E5EEFBE10C9485337C0100919F06AF
:1037D0001091A0068091FE019091FF01082B192BFA
:1037E000CFE0D0E0CC24C394D12CC6010C2E02C073
:1037F000880F991F0A94E2F780239123892B21F4E3
:10380000219798F7B12C07C0BC2EB7018C2F3DD65D
:10381000FBDD0197A9F38B2DCDB7DEB7E9E00C9462
:10382000A133CF93DF93EC01CADFBE012ED6ECDDCE
:10383000DF91CF910895FC0124812223D1F0808172
:103840009181EFDF92959F70963079F010F492504D
:1038500001C09A50923068F4803F69F018F4883EB5
:1038600040F409C0843F29F406C0883E20F0813F1F
:1038700011F080E0089581E00895A4E1B0E0E3E470
:10388000FCE10C9482338C0186E0F801DE011F9686
:1038900001900D928A95E1F7F8018481E58096ED1B
:1038A000892E92E0992E9091DA0291111DC0882301
:1038B00009F459C1EE2009F43EC0C801BCDFF82E5E
:1038C0008823C9F187E0F801D40101900D928A950F
:1038D000E1F78091DA02813029F48091D60290914B
:1038E000D7029FDF14DF41C1F801D080C180A280E0
:1038F000B380F090DB022091D8023091D902FF20F2
:1039000009F4E1C0A501421B530B483C510508F0E6
:1039100098C0882309F429C18091DC02282F207FD8
:103920009091D702222359F09C1509F45CC0C8017C
:1039300082DF811160C0C8010E94650E14C19C1114
:1039400013C09091D6029D110FC0E1100DC08F7071
:1039500080618093DC0286ED92E00E94650E80918A
:10396000DC02F8018683FDC0E11037C040E06C2D19
:103970008D2D2ADD40E06C2D8D2D26DDE82E811168
:10398000F0C0DF86C88A8F8598894BDF292F229562
:103990002F70243020F49F70223028F009C02A5064
:1039A000223080F014C0992349F0811107C013C060
:1039B000992321F0F8019681907F69F0805E88302C
:1039C00030F409C0803F38F0815F833020F0C801B7
:1039D0000E94650EEF2CFE2CC8C08091DC02816035
:1039E0008093DC02BEC09091D6029D11A0CFE11061
:1039F0009ECFF80196C0EE2009F49DCF2091DC0205
:103A0000822F82958F7090E002978CF08091D60281
:103A10009091D70299878887BB86AA868091DA021F
:103A20008C871D862E87CE0108960E94650E87E042
:103A3000F801A6EDB2E001900D928A95E1F767DEFC
:103A400092C09091DC02292F207F51F486ED92E004
:103A50000E94650E87E0F40111928A95E9F781C012
:103A6000882309F482C08091D7028C110CC0809108
:103A7000D6028D1108C0E11006C0F8019683C80176
:103A80000E94650E68C0C801D6DE882309F453CFB2
:103A9000EE2009F450CF2091DC02822F82958F70A6
:103AA00090E0029724F28091D6029091D7029A83F7
:103AB0008983BC82AB828091DA028D831E822F8340
:103AC000CE010196B2CFA21AB30AF8ECAF16B10438
:103AD00008F041C0882309F446C0FE2CEE2009F40A
:103AE0002ACF8091D7028C1129C08091D6028D11E6
:103AF00025C09091DC0290FD18C0892F82958F70AF
:103B0000282F30E02115310581F0F80196832F3000
:103B1000310541F08F5F982F9295907F86818F704D
:103B2000892B8683C8010E94650E87E0F801A6ED07
:103B3000B2E001900D928A95E1F717C0C8017BDED3
:103B4000811175CF8091DC0281608093DC02C80115
:103B50000E94650E0AC087E0F40111928A95E9F788
:103B600004C0F12C02C0FF24F3948F2D6496ECE086
:103B70000C949E339A3078F5863068F5E82FF0E0A3
:103B800086E0989FE00DF11D11249E2F977083E031
:103B9000F695E7958A95E1F7EE0FFF1FEE0FFF1FF1
:103BA000EA54FD4F40E050E080E0219130E0092EE2
:103BB00002C0369527950A94E2F721703327042E28
:103BC00001C0220F0A94EAF7822B4F5F5F4F443007
:103BD000510559F7089580E008959A3088F58630A8
:103BE00078F5E82FF0E086E0989FE00DF11D1124B4
:103BF0008E2F877051E001C0550F8A95EAF783E058
:103C0000F695E7958A95E1F7EE0FFF1FEE0FFF1F80
:103C1000EA54FD4F20E030E070E04081CB01022EFD
:103C200002C0969587950A94E2F781708195842762
:103C30008523842781932F5F3F4F2430310569F717
:103C400008950E94E52C9093A00680939F06089506
:103C500021E030E002C0220F331F8A95E2F7209561
:103C6000309580919F069091A00682239323E9CFFF
:103C7000909117038095892380931703282F27702D
:103C800061F4981751F09091AF0292FF06C08695AB
:103C900086958695DDDF1092170308959091AF0207
:103CA00092FB222720F9281771F080FB92F990935C
:103CB000AF026091AE027091AF0284E090E00E948A
:103CC000E83382E0D5CF089521E030E002C0220F32
:103CD000331F8A95E2F780919F069091A006822B70
:103CE000932BAFCF9093FF018093FE010895109224
:103CF000A30280917B01813041F48091AE0287FF65
:103D000004C08EE1EFE5F2E003C086E0E7E5F2E013
:103D1000DF011D928A95E9F780E090E069D980E0A3
:103D200090E03FD91092A20293DCE4E8F2E086E052
:103D3000DF011D928A95E9F710927D0210927E02B2
:103D400010927F0289CA882311F074DC81CC089517
:103D5000882331F09091A202892B8093A20278CC23
:103D60000895882311F06DDC73CC0895882331F019
:103D70009091A302892B8093A3026ACC08951F938C
:103D8000CF93DF93182F893319F0CAE0D0E002C037
:103D9000C0E5D0E0812F0E94F02F8FE99FE00197CE
:103DA000F1F700C000002197C1F7812F0E94C12FB9
:103DB000DF91CF911F910895A6E0B0E0E2EEFEE121
:103DC0000C948A334BD88C0180914103909142032B
:103DD0000817190779F019821A8240D8682F49818B
:103DE0005A81792F80E090E00E94072C10934203C3
:103DF000009341032696E4E00C94A63381E080937F
:103E00002D02089580E00895A0E0B0E0EAE0FFE12F
:103E10000C9484337C015B016A0180918B038A30AE
:103E200018F001E010E002C00AE010E0C1E0D0E0CC
:103E3000B501C701F6010995811115C021960C172E
:103E40001D0794F0CC9F9001CD9F300D300D1124B3
:103E500080E090E045E34A95F1F700000196821773
:103E60009307C1F7E5CF81E0CDB7DEB7EAE00C9468
:103E7000A033A0E0B0E0EFE3FFE10C948233C82F61
:103E80007B01D42F6901FB0180809180A280B380E7
:103E90000E942217DC01CB0188199909AA09BB09E4
:103EA00084369105A105B10510F4DD2339F10C2EFE
:103EB000000CDD0B01151105A9F0FE0183E0EE0FEA
:103EC000FF1F8A95E1F7E25DFE4F81819281815A61
:103ED0009C4F408150E00417150708F4A801B60173
:103EE0000E94BF34CE010E94F332882341F00E9429
:103EF0002217F701608371838283938381E0CDB7BA
:103F0000DEB7ECE00C949E33ACE0B0E0EAE8FFE111
:103F10000C948A3388E0E1EAF6E0DE011196019024
:103F20000D928A95E1F78091950390919603A09167
:103F30009703B091980389879A87AB87BC8741E044
:103F40008B85811101C040E00CE010E09E012F5FE5
:103F50003F4F67E873E087E08CDF81111092970391
:103F60002C96E4E00C94A6330F931F93CF93DF932A
:103F7000EC0145E050E065E673E00E94B23441E0B8
:103F8000892B09F440E005E010E09E0166E573E04E
:103F900082E06FDFDF91CF911F910F910895A1E033
:103FA000B0E0E5EDFFE10C947E33C62E4A015901E5
:103FB000682E880F7708C3010E94F332882309F422
:103FC0006AC0C30123E0880F991F2A95E1F7FC011D
:103FD000E25DFE4F438150E04115510511F041E093
:103FE00050E0FC01E25DFE4F64817581615A7C4FB7
:103FF000CE0101960E94BF34F4014080518062805E
:1040000073800E942217DC01CB0184199509A6094F
:10401000B70984369105A105B10530F4B701C8018F
:1040200096D999818917C9F10C2C000CDD08C601BD
:104030000E94F332782E8823E1F0E114F104C9F0F4
:10404000960183E0220F331F8A95E1F7F901E25DC3
:10405000FE4F438150E0E416F50608F4A701F9018C
:10406000E25DFE4F64817581615A7C4FC5010E94FB
:10407000BF34B701C8016BD991E02981281390E0C2
:10408000D92ED72089F00E942217F4016083718312
:104090008283938309C0D12C02C0DD24D394A7016D
:1040A000B801C5010E94BF348D2D2196E0E10C942A
:1040B0009A33A8E0B0E0EFE5F0E20C94883388E0B2
:1040C000E82EF12C0BE613E09E012F5F3F4F4BE5EE
:1040D00053E064E083E063DF182F882381F190913F
:1040E0006A0380915A03981751F120E090916E0372
:1040F00080916D038917C1F0E92FF0E0ED59FC4F75
:10410000848587FB662760F99F5F937090936E03A9
:1041100090916C039F5F90936C038F7704D521E09F
:104120008111E4CF10E002C0222329F085E090E065
:104130000E94F332182380916A0380935A03812FDF
:104140002896E6E00C94A433A5E0B0E0EAEAF0E2B9
:104150000C9486336B0185E0E82EF12C00E613E029
:104160009E012F5F3F4F42E553E061E080E017DFA3
:10417000882349F095E0FE013196ADE4B3E001906B
:104180000D929A95E1F795E0EDE4F3E0D601019008
:104190000D929A95E1F72596E8E00C94A233F894F5
:1041A000E82FE295EF70F0E031A1282F2F7081E029
:1041B00090E001C0880F2A95EAF7982F90959323F5
:1041C00091A392A1892B82A3789408950F931F93B2
:1041D0008091A602882319F00E9422170EC00E9427
:1041E00022170091EE011091EF012091F001309122
:1041F000F101600F711F821F931F1F910F9108958E
:10420000CF92DF92EF92FF92CF93DF9300D000D056
:10421000CDB7DEB7C0908303D0908403E0908503D0
:10422000F09086030E942217DC01CB018C199D09B6
:10423000AE09BF0984369105A105B10568F1C6DF55
:10424000DC01CB010296A11DB11D89839A83AB834A
:10425000BC8380915F0190916001815A9C4F409195
:104260005E0150E04530510510F044E050E0BE01E1
:104270006F5F7F4F0E94BF3486E090E00E94F33270
:10428000882359F00E94221760938303709384035C
:10429000809385039093860381E00F900F900F9099
:1042A0000F90DF91CF91FF90EF90DF90CF90089526
:1042B0009091AE0292FF10C041E0282F247124306B
:1042C00009F040E031E0282F2871283009F030E073
:1042D000431711F02CE0822793FF10C041E0282FF4
:1042E0002471243109F040E031E0282F2871283171
:1042F00009F030E0431711F02CE082273091AF0233
:1043000030FF10C051E0282F2171213009F050E01A
:1043100041E0282F2871283009F040E0541711F0AF
:1043200029E0822731FF10C041E0282F217121317F
:1043300009F040E031E0282F2871283109F030E001
:10434000431711F029E0822794FF02C083FD877E86
:1043500008958238910569F1B0F48133910509F42B
:1043600075C048F48932910509F467C08A32910515
:1043700009F471C008958533910509F459C0893352
:104380009105B9F00895833E910589F138F4803E96
:104390009105D1F0823E910529F10895863E91055F
:1043A000C9F1873E9105D9F1843E910509F06CC0B1
:1043B00027C02091AE0220FD57C021FD55C020919D
:1043C000AF0223FD5BC008958091AE0280FD48C01E
:1043D0008091AF0280FF48C08091AE0284FD46C04C
:1043E00083EE51C08091AE0282FF3CC0F5CF809138
:1043F000AE0282FD37C08091AF0280FD35C0ECCFA8
:104400008091AF0281FF36C08091AE0284FD2EC044
:1044100087EE39C08091AE0283FF2AC0F5CF80912C
:10442000AE0283FD25C08091AF0281FD23C0ECCF99
:104430008091AE0285FD22C01FC08091AE0285FD35
:104440001BC08091AF0283FF19C00AC08091AE02E9
:1044500086FD16C017C08091AE0286FD13C010C045
:1044600089E311C082EE0FC080EE0DC080E00BC06A
:1044700086EE09C084EE07C085E305C089E203C06B
:104480008AE201C081E390E008957A30B0F46630AA
:10449000A0F48430A0F49CE3899FF001112486E00D
:1044A000789FE00DF11D1124E60FF11DEE0FFF1FA7
:1044B000E15DFC4F85919491089580E001C081E019
:1044C00090E008958091A602882311F00C942E1795
:1044D0007DDECB010895AFE0B0E0E1E7F2E20C94BD
:1044E0007F33AE014F5F5F4F7A018AE0DA011D92A0
:1044F0008A95E9F70DE711E06A0182E8682E81E00C
:10450000782EAA24A394B12C28E8822E21E0922EA2
:10451000F80180818F3F09F43FC0F894E82FE295BD
:10452000EF70F0E021A18F70A50102C0440F551F6C
:104530008A95E2F7CA01922F982B91A392A18095B8
:10454000892382A3789400C0E2E8F1E0512C31E0A5
:1045500021912F3F89F0A22FA295AF70B0E09096E5
:104560008C9190E02F7002C0959587952A95E2F77F
:1045700080FD02C0832F01C080E0582A330F8E16C1
:104580009F0631F7D8018C918F3F09F008DEB0EA21
:10459000BA95F1F7F60150820F5F1F4FFFEFCF1A68
:1045A000DF0A6016710609F0B3CF4AE050E0B701A8
:1045B00082EF91E00E94B234892B99F08AE0F701F2
:1045C000A2EFB1E001900D928A95E1F781E080932E
:1045D00045030E942E179093440380934303D12CEC
:1045E00029C0809145038823D1F30091FD01E0901B
:1045F0004303F09044030E942E178E199F090597DC
:1046000070F310E00D5F1D4F45E050E062EF71E088
:10461000C8010E94B234892B09F42FC185E0E2EF72
:10462000F1E0D80101900D928A95E1F7DD24D39451
:10463000109245038091A602E091FD01882309F4C0
:104640007FC07E012BE0E20EF11C85E0D7011D92B8
:104650008A95E9F70E2F10E00D5F1D4F80918B03B7
:104660008A3048F444EA50E2B701C801CDDB882320
:1046700009F43BC00CC0A0904603B09047030E94D1
:104680002E178A199B09843F914060F73FC044EB85
:104690005FE1B701C801B8DB882339F149E550E291
:1046A000B701C801B1DB882301F140E051E2B70155
:1046B000C801AADB8823C9F044E85FE1B701C8015B
:1046C000A3DB882391F010928B038091FC0190E092
:1046D00045E050E0B7018D5F9D4F0E94B23421E06C
:1046E00020934C03892BF1F4C2C080918B038F3F40
:1046F00019F08F5F80938B0380918B038A3028F3AE
:104700000E942E17909347038093460380914C0399
:10471000882309F4ACC085E0F70111928A95E9F786
:1047200010924C03A091FC01B0E0AD5FBD4F85E05D
:10473000FE013B9601900D928A95E1F781E098C0C9
:104740000091FC0110E00D5F1D4FF0E0ED5FFD4FAB
:1047500085E0A0E6B3E001900D928A95E1F765E06F
:1047600070E080E693E00E94A71980935F0385E0E4
:10477000E5E6F3E0D80101900D928A95E1F788E033
:10478000EBEAF5E0ABE6B3E001900D928A95E1F734
:1047900068E070E08BE693E00E94A71980936A03BB
:1047A0008090730390907403A0907503B09076038B
:1047B0008091480390914903A0914A03B0914B0323
:1047C00088169906AA06BB06B1F08092480390921B
:1047D0004903A0924A03B0924B030E942217861A03
:1047E000970AA80AB90A8092EE019092EF01A0926E
:1047F000F001B092F10180917703982F9170869526
:104800008695F0907803E0907903C0907A03009148
:104810008003109181032091820310928103112360
:1048200031F114FD2093980310FF0DC0992349F036
:104830009091A10691609093A10660E00E949E2E47
:1048400002C00E94902E11FF06C020E04C2D6E2D5C
:104850008F2D0E94062E12FF05C0002311F03FD2BB
:1048600001C036D213FF03C081E08093920380E041
:104870008D292F96EFE00C949B33D12CD9CEFC01DF
:10488000EE0FFF1F8E0F9F1FFC01ED54FA4F618347
:10489000408322830895539A089508958BB1877FAA
:1048A0009BB198602FB7F894E3EBF5E036E0EB3876
:1048B000F30789F0319148E09BB9000000C037FF51
:1048C0008BB9330F000000C000C000C08BB900C01E
:1048D0004A9591F7EBCF2FBF8FE594E00197F1F761
:1048E00000C0000008951F93CF93DF93162F8A30E6
:1048F00011F481E003C08D3019F480E087D082C0CC
:10490000C091A305D091A40596E0FE01ADE9B5E004
:1049100001900D929A95E1F7803E30F086E0FE011D
:1049200011928A95E9F70BC0F6E08F9FB001112430
:10493000615F794F46E050E0CE010E94B333111120
:1049400037C0C091A305D091A40546E050E0BE0158
:104950008DE995E00E94B234892BC9F19E012D5951
:104960003340A90185E0569547958A95E1F781E0A6
:1049700090E0BC0102C0660F771F4A95E2F74091B4
:104980009B0350919C03462B572B2B5F3F4F65E0B9
:10499000369527956A95E1F702C0880F991F2A95E9
:1049A000E2F7842B952B90939C0380939B030FC07D
:1049B000E091A305F091A4059F012A5F3F4F2E17B8
:1049C0003F0709F4BECF808180958193F8CF9E0187
:1049D0002759334040919A03642F70E0C9010E9427
:1049E0006833481B463010F4240F311D211582E036
:1049F000380710F020E030E023563C4F3093A405F8
:104A00002093A305DF91CF911F910895CF93E82FB5
:104A10002091A3053091A4052D59334040919A036C
:104A2000642F70E0C9010E946833481B842FEE2375
:104A300051F066E00E94FC33C82FC150A8F060E03E
:104A400080E251DFFACFA901480F511D41155240B4
:104A500018F080E020E030E0280F311D23563C4F55
:104A60003093A4052093A305CF910895CF93DF93AE
:104A7000EC01EC81F0E0E15FFA4F84919091A106A6
:104A800090FF0EC07091A3066091A206893708F0CE
:104A900088E70E946F2D962F672F482F892FD5D733
:104AA0008C818F5F8C83DF91CF91089590E0FC0122
:104AB000662319F0E858FE4F02C0E958FE4F2081E6
:104AC0002F3F71F0E22FE295EF70F0E080A190E0CF
:104AD0002F7002C0959587952A95E2F78170089509
:104AE00080E0089590E0FC01662319F0E858FE4F3D
:104AF00002C0E958FE4F80818F3FA1F0E82FE29578
:104B0000EF70F0E031A1282F2F7081E090E001C01C
:104B1000880F2A95EAF7982F9095932391A392A155
:104B2000892B82A308959091AD05E92FF0E0409183
:104B3000AE0550E09F012F5F3F4F23703327421790
:104B40005307A1F0E155FA4F8F7720812078822B0F
:104B500060FB87F980839F5F93709093AD05809190
:104B6000AB058F5F8093AB0581E0089580E00895E9
:104B7000CF9380E09091AE052091AD05291709F4FF
:104B800046C0E92FF0E0E155FA4F808187FBCC2742
:104B9000C0F98F779F5F93709093AE059091AC05AD
:104BA0009F5F9093AC0581110AC0CC2321F089EA64
:104BB000E6D889EA27C08AEAE2D88AEA23C08130A7
:104BC00011F580919F069091A006D2D5882319F007
:104BD0008330A8F40CC06AE070E0CC2321F08EE4AE
:104BE00090E0DBD60EC08BE490E0D7D60EC0CC238D
:104BF00019F081E5C4D805C082E5C1D806C0CC2330
:104C000021F08EE4BCD881E0B5CF8BE4FBCFCF910F
:104C100008951F93CF93DF93EC01162FFE0184912B
:104C2000882321F0612F5FDE2196F8CFDF91CF91AD
:104C30001F910895EEDF81E0E9CEAB0124E630E07C
:104C4000BC0188E70E94303121E0892B09F020E087
:104C5000822F08958091AA059091A905882381F05B
:104C6000992361F062E070E081E59BE0E6DF81116D
:104C700003C08091A90508951092A9059091A905F6
:104C800081E0892708958091AA058823F1F00E9488
:104C90002217DC01CB01805A9541AF4FBF4F809363
:104CA000A5059093A605A093A705B093A8058091AC
:104CB000A90581110AC062E070E08FE49BE0BDDFCE
:104CC000882319F081E08093A9058091A9050895B2
:104CD000E5E9F3E011828281846082830895609126
:104CE000A1066695669570E041E050E08EE691E0A1
:104CF0000E94A534892B19F481E080939603E2DBAE
:104D00009093900380938F038091970384608093A6
:104D100097030895A5E0B0E0E0E9F6E20C94803353
:104D20008091A10680FF08C0A0908D03B0908E03F3
:104D3000A114B10499F42BC01091740180917501F4
:104D4000181790F780917201912F981B892F20E0FE
:104D500040E060E090E093DD1F5FF0CF8091A1061E
:104D600080FF15C0C12CD12C66246394712C209136
:104D70009803C3010C2C01C0880F0A94EAF7822320
:104D800099F1F501E590F490E114F104B9F486DDB0
:104D90002596EEE00C949C3310E08A814801880E41
:104DA000911C89E4881691041CF088E4882E912CCB
:104DB0000815190574F095E0E90EF11C45E050E086
:104DC000B701CE0101960E94B33309810F3F21F74D
:104DD0000BC04D81493708F048E798016C818B8101
:104DE00004D70F5F1F4FE4CF82E0A80EB11C9FEFE6
:104DF000C91AD90A88E0C816D10409F0B8CFC7CFBC
:104E0000A0E0B0E0E6E0F7E20C948233EC014C81E4
:104E1000042F10E09801D8010E9449349B01AC0195
:104E20000E945E346B017C01E0E2F0E0E01BF10BDC
:104E3000A5E5B0E09B01AC010E945E344B015C0132
:104E40009F01DF010E9443349B01AC010E94683442
:104E50009B01AC012C0D3D1D4E1D5F1DC501B40114
:104E60000E941B34822FF22E99E2921728F093E0D1
:104E7000299F900111240DC025E530E0281B310940
:104E8000C901880F991F280F391F37FF02C02F5FF4
:104E90003F4F35952795122F109500E085E5E82EB8
:104EA000EF18809176010817A0F401FD02C08E2D45
:104EB00001C08F2D90917401202F30E0290F311DFA
:104EC000412F193708F048E76091A3068ED60F5F8F
:104ED000E8CF20DF8C81811102C091E003C08032D5
:104EE00019F49FEF9093710190917101890F8C8358
:104EF000CDB7DEB7ECE00C949E331F93CF93DF93D6
:104F0000EC018C81811109C081E08C83109299039E
:104F100092E09093700180936F01109174018091E1
:104F20007501181760F480917201912F981B20E091
:104F300040E060E0892F90E0A2DC1F5FF0CF10E03E
:104F400060917601161780F5E12FF0E070E0CF0157
:104F50000E94083420917401820F20919903022E3F
:104F6000000C330BE217F307ACF020917001022E16
:104F7000000C330B2E173F076CF0282F30E04091C8
:104F8000A406493708F048E76091A3068091A2067D
:104F90002CD608C090917201891B20E040E060E0AF
:104FA00090E06DDC1F5FCCCFB5DE80916F0120916A
:104FB0009903280F2093990390917001980F909373
:104FC000700119165CF4022E000C330B409176012F
:104FD00050E0415051092417350734F081958093F2
:104FE0006F01813009F41C82DF91CF911F910895E8
:104FF000EF92FF921F93CF93DF93EC0110E0EE242A
:10500000EA94F12C609176011617C8F4809174012E
:10501000212F30E0280F311D4091A406493708F0B8
:1050200048E770E0C7010E940834962F8C81609198
:10503000A306199F800D1124D8D51F5FE3CF6ADE28
:105040009A818C8190FF02C08F5F01C081508C8358
:10505000DF91CF911F91FF90EF90089521E030E014
:10506000A90102C0440F551F8A95E2F7CA01209199
:105070009803662311F0822B02C0809582238093CF
:1050800098038091970380618093970381E08093D8
:105090008C0308950F93CF93DF93C1EAD6E0488144
:1050A00059816A817B8188E090E00E94E033288109
:1050B00039814A815B816C817D818E819F8100E293
:1050C0000E948934622F83E290E00E94CE33DF9108
:1050D000CF910F91089580919F069091A0069C0119
:1050E000267033272630310511F4886001C0877F90
:1050F0000C94211E4F925F926F927F928F929F929B
:10510000AF92BF920F93CF93DF9388E090E00E941D
:10511000C4332B013C01C1EAD6E0688359826A821C
:105120007B821C821D821E821F8283E290E00E948D
:10513000BC33282F30E040E050E060E070E080E0D9
:1051400090E000E20E946E3424293529462957292F
:10515000288339834A835B836C837D838E839F831B
:10516000DF91CF910F91BF90AF909F908F907F90E4
:105170006F905F904F900895AAE2B0E0E2ECF8E201
:105180000C948B33E7E9F6E08FE996E02091F1008B
:1051900021938E179F07D1F780919806833009F4E9
:1051A00061C030F4813071F0823009F4A0C0B7C022
:1051B0008A3009F48CC08B3009F46CC0893009F056
:1051C000AEC020C080919706813A09F0A8C08091B6
:1051D000E800877F8093E80080919B0690919C0671
:1051E000892B21F468E08BE896E003C060E080E062
:1051F00090E070E00E948D168091E8008B7780939C
:10520000E8008DC080919706813209F088C08091B6
:105210009B0690919C06029708F081C08091E8005F
:10522000877F8093E8008091E80082FD05C080912F
:1052300095068111F8CF73C02091F3008091F200A0
:1052400090E0922B029731F48091F100813011F0BF
:10525000863021F48091F10080937A018091E800FA
:105260008B7759C080919706813A09F058C0809198
:105270009B0690919C06892B09F051C08091E80013
:10528000877F8093E8008091E80080FFFCCF8091C9
:105290007B013CC080919706813209F040C080912B
:1052A0009B0690919C06892BD1F58091E800877F21
:1052B0008093E8000E94FC1481E09091990691117E
:1052C00001C080E080937B010E94771E28C08091FE
:1052D0009706813221F58091E800877F8093E8006E
:1052E0000E94FC1480919A068093790118C08091E5
:1052F0009706813AA1F48091E800877F8093E800C7
:105300008091E80080FFFCCF809179018093F100CB
:105310008091E8008E778093E8000E94FC148091D1
:10532000E80083FFD6C18091970690919806492F97
:1053300050E04A30510508F0CCC1FA01EA56FF4F5F
:105340000C943D34803821F0823809F0C2C108C085
:105350008091930690919406992389F082600FC002
:1053600080919B068F70873008F0B3C18093E9006D
:105370008091EB0085FB882780F91092E9009091DD
:10538000E800977F9093E8008093F1001092F1007D
:1053900066C1282F2D7F09F09CC1882319F0823027
:1053A00061F097C180919906813009F092C19330E4
:1053B00009F080E0809394062EC0809199068111B7
:1053C0002AC080919B068F702FEF280F263008F09F
:1053D00080C18093E9002091EB0020FF1CC0933036
:1053E00021F48091EB00806214C09091EB009061F9
:1053F0009093EB0021E030E0A90102C0440F551F5B
:105400008A95E2F74093EA001092EA008091EB005F
:1054100088608093EB001092E9008091E800877F1C
:1054200021C1811156C1109199061F778091E30027
:105430008078812B8093E3008091E800877F8093C0
:10544000E8000E94FC148091E80080FFFCCF80916E
:10545000E30080688093E300111102C082E001C084
:1054600083E08093950635C18058823008F031C1C1
:105470008091990690919A068C3D53E0950779F5B5
:1054800083E08A838AE289834FB7F894DE0113961A
:1054900020E03EE051E2E32FF0E050935700E4912A
:1054A00020FF03C0E295EF703F5FEF708E2F90E01A
:1054B000EA3010F0C79601C0C0968D939D932F5F80
:1054C000243149F74FBF8091E800877F8093E8003F
:1054D0006AE270E0CE0101960E948D16AEC0409146
:1054E0009B0650919C06292F332723303105A9F0C4
:1054F00068F42130310509F4FBC02230310509F090
:10550000E8C08BE390E0EDE4FCE044C021323105DB
:1055100021F12232310571F1DCC0992781309105EA
:10552000A1F058F0029709F0D4C0EAE9FCE0E49158
:105530008E2F90E0EAE9FCE02AC0E4ECFCE0E49184
:105540008E2F90E0E4ECFCE022C0E8EAFCE0E4917D
:105550008E2F90E0E8EAFCE01AC04115510509F4ED
:10556000CCC04130510509F0B4C089E090E0E8E7D3
:10557000FCE010C04115510509F4C4C0413051058B
:1055800009F0A7C086EB90E0E3E5FBE003C00097DD
:1055900009F49FC02091E800277F2093E800209124
:1055A0009D0630919E068217930708F49C0140E007
:1055B0002115310589F180919506882309F43DC0B4
:1055C0008530D9F18091E80083FD37C08091E800F3
:1055D00082FD2FC08091E80080FFEACF4091F30068
:1055E0008091F20090E0942B2115310559F088301C
:1055F000910540F444914093F100319621503109D6
:105600000196F2CF41E0089709F040E08091E80070
:105610008E778093E800CCCF4111CDCF0AC0809126
:105620009506882351F0853041F08091E80083FD94
:1056300004C08091E80082FFF2CF8091E8008B7770
:105640008093E80046C0803809F043C08091E800AC
:10565000877F8093E800809196068093F100809187
:10566000E8008E778093E8000E94FC1432C081111C
:1056700030C08091990690919A06992702974CF52F
:105680008091E800877F8093E8001091990610933D
:1056900096060E94FC14111106C08091E30087FD5C
:1056A00002C081E001C084E08093950642E061EC95
:1056B00081E00E941B1542E261EC82E00E941B1512
:1056C00080919506843011F081E001C082E08093E2
:1056D0007C018091E80083FF1AC08091E800877FF9
:1056E0008093E8008091EB0080628093EB000FC014
:1056F00082E190E0E8E8FCE04DCF89E090E0EFE562
:10570000FCE048CF84E490E0E9E0FCE043CFAA96D7
:10571000E3E00C94A7339C013A9521153F4130F505
:10572000BC0166277270AC01442754709C0122278B
:10573000387094FF0FC090FF02C080E101C080E08C
:10574000672B09F08062452B09F08064232B79F0E8
:1057500080680895892F8170672B09F08260452B3E
:1057600009F08460232B19F08860089580E0089583
:10577000292F33272115310519F0C90148E001C04F
:1057800040E09C0164E0369527956A95E1F7211584
:10579000310511F04C5FC9019C013695279536956E
:1057A00027952115310511F04E5FC9019C013695F1
:1057B0002795232B09F04F5F842F0895A6E0B0E0D2
:1057C000E3EEFBE2A8C726E0FC01DE0111960190A2
:1057D0000D922A95E1F7FC01258189819A81222386
:1057E00059F0662349F00E94DF1B182F682F89812A
:1057F0009A810E94ED1D03C00E94BA1D182F698175
:105800007A81812F0E9445222696E3E0A0C7ABE172
:10581000B0E0ECE0FCE27EC74E8B5F8B688F798F47
:105820008A8F9B8F91111092A2028E01015F1F4FF0
:1058300087E0D8011D928A95E9F786E0FE01769609
:10584000D80101900D928A95E1F78B89882331F078
:1058500061E0C801B3DF61E0C801B0DF87E0FE01AD
:105860003F96DE01189601900D928A95E1F7CE01E0
:1058700008960E943D1C81112CC087E0FE013896DD
:10588000DE01119601900D928A95E1F76C856623F1
:1058900001F12091DD0230E0C9010196877099275E
:1058A0004091160350E08417950761F16D8397E0EE
:1058B000929FD001939FB00D1124A252BD4FFE01C3
:1058C000319601900D929A95E1F78093DD020E9446
:1058D0007D1B17E0809116039091DD028917F9F086
:1058E000189FC001112482529D4F0E943D1C8823A5
:1058F000B1F08091160390E001968770992780930C
:105900001603E8CF0E94771E1092DD021092160354
:10591000E6EDF2E087E0DF011D928A95E9F76B96EC
:10592000E4E014C70E94771E9AE088E10FB6F8946D
:10593000A895809360000FBE90936000FFCFCF9337
:10594000DF93EC011ED3CE01805E9109089710F021
:10595000209729F4CE01DFDE0E94B11E04C0CE01E3
:10596000DADE0E94A31EDF91CF910895CF93DF93DB
:10597000EC01805E9109089710F0209729F4CE0180
:10598000CADE0E94B61E04C0CE01C5DE0E94A81E5B
:105990008C2F26D3DF91CF9108950F931F93CF9330
:1059A000DF938C01EB01E2DF209741F08FE99FE06C
:1059B0000197F1F700C000002197F6CFC801BFDFC3
:1059C000DF91CF911F910F910895CF93DF93EC0159
:1059D000009711F080FF0AC06091FE017091FF01F5
:1059E0006115710531F06170772705C060E070E0E6
:1059F00002C061E070E0617080E030DB209729F048
:105A0000BE0176956795617001C060E081E026DB9C
:105A1000209739F0BE017695679576956795617008
:105A200001C060E082E01ADB209741F0BE0183E014
:105A3000769567958A95E1F7617001C060E083E033
:105A40000DDBCE01DF91CF9108950F931F93CF937C
:105A5000DF939091A10690FF17C0042F162FD82F27
:105A6000C091740180917501C81768F4809172012A
:105A70009C2F981B202F412F6D2F892F90E00E9483
:105A80003F24CF5FEFCF46D9DF91CF911F910F9188
:105A900008958091A506882319F081508093A5066A
:105AA00081EA96E0F7CA8091A506833018F48F5FEB
:105AB0008093A50681EA96E0EDCAE1EAF6E085E08A
:105AC000808311828FEF828388E783831482E5E9E4
:105AD000F3E082818360828381EA96E0DBCAA0E002
